:020000040800F2
:10000000584D00247103000813430008333C0008D6
:1000100011430008D50500085F53000800000000E8
:10002000000000000000000000000000B102000815
:10003000D7050008000000000D03000899450008DE
:100040008B0300088B0300088B0300088B03000858
:100050008B0300088B0300088B0300088B03000848
:100060008B0300088B0300088B0300088B03000838
:100070008B0300088B0300088B0300088B03000828
:100080008B0300088B0300088B0300088B03000818
:100090008B0300088B0300088B0300088B03000808
:1000A0008B0300088B0300088B0300088B030008F8
:1000B0008B0300088B0300088B0300088B030008E8
:1000C0008B0300088B0300088B0300088B030008D8
:1000D0008B0300088B0300088B0300088B030008C8
:1000E0008B0300088B030008000000008B0300084E
:1000F0008B0300088B0300088B0300088B030008A8
:100100008B0300088B0300088B0300088B03000897
:100110008B0300088B0300088B0300088B03000887
:100120008B0300088B0300088B0300088B03000877
:100130008B0300088B0300088B0300088B03000867
:1001400000000000000000000000000000000000AF
:100150008B0300088B0300088B0300088B03000847
:100160008B0300088B0300088B0300088B03000837
:100170008B0300088B0300088B03000800000000BD
:100180008B0300088B0300088B0300088B03000817
:100190008B0300088B0300088B0300088B03000807
:1001A0008B0300088B0300088B0300088B030008F7
:1001B0008B0300088B0300088B0300088B030008E7
:1001C0008B0300088B0300088B0300088B030008D7
:1001D0008B0300088B0300088B0300088B030008C7
:1001E0008B0300088B0300088B0300088B030008B7
:1001F0008B0300088B0300088B0300088B030008A7
:100200008B0300088B0300088B0300088B03000896
:100210008B0300088B0300084D4700088B03000880
:100220008B0300088B0300088B030008000000000C
:100230008B0300088B030008000000008B030008FC
:100240008B0300088B0300088B0300088B03000856
:100250008B0300088B0300088B0300088B03000846
:100260008B0300088B0300088B0300088B03000836
:100270008B0300088B0300088B03000800000000BC
:100280008B0300088B0300088B03000800000000AC
:10029000000000008B030008DFF810D000F004F924
:1002A0000048004729560008AFF30080584D00244D
:1002B0002C4B19680868B0E8F04F80F30988BFF349
:1002C0006F8F4FF0000080F311887047000000002E
:1002D00008480068006880F308884FF0000080F349
:1002E000148862B661B6BFF34F8FBFF36F8F00DF24
:1002F00000BF00BF08ED00E0DFF80C00016841F42A
:1003000070010160704700BF88ED00E0EFF30980E5
:10031000BFF36F8F134B1A681EF0100F08BF20ED4C
:10032000108A20E9F04F106009B44FF0500080F3BC
:100330001188BFF34F8FBFF36F8F05F08DFF4FF024
:10034000000080F3118809BC19680868B0E8F04F14
:100350001EF0100F08BFB0EC108A80F30988BFF3BD
:100360006F8F704748000024EFF30580704700004E
:100370000648804706480047FEE7FEE7FEE7FEE73F
:10038000FEE7FEE7FEE7FEE7FEE7FEE77146000850
:10039000990200082DE9F05F0546002092469B4631
:1003A00088460646814640241BE02846414647468B
:1003B000224600F069F853465A46C01A914110D3BC
:1003C00011461846224600F050F82D1A67EB010836
:1003D0004F4622460120002100F047F817EB0009A4
:1003E0004E41201EA4F10104DFDC484631462A4676
:1003F0004346BDE8F09F40EA01039B0703D009E0B4
:1004000008C9121F08C0042AFAD203E011F8013B00
:1004100000F8013B521EF9D27047D2B201E000F859
:10042000012B491EFBD270470022F6E710B5134698
:100430000A4604461946FFF7F0FF204610BD30B5C6
:100440000B46014600202022012409E021FA02F592
:100450009D4205D303FA02F5491B04FA02F528442C
:10046000151EA2F10102F1DC30BD202A04DB203A86
:1004700000FA02F1002070479140C2F1200320FAF7
:1004800003F3194390407047202A04DB203A21FAF5
:1004900002F00021704721FA02F3D040C2F120029D
:1004A0009140084319467047064C074D06E0E06846
:1004B00040F0010394E8070098471034AC42F6D3AB
:1004C000FFF7EEFE8C6D0008AC6D000870B53A4980
:1004D00005460068884202D0384A904202D1D1F8DD
:1004E000080302E03648D0F8080310F4403F11D06A
:1004F00002F06CF904466868B0F5803F06D0B0F5AC
:10050000003F03D0B0F5403F27D101E0000C18E0D8
:10051000A40822E000214FF4002001F0ADF90446C8
:1005200068688103890B18D181140C2915D2DFE882
:1005300001F0140606060606060B0D0F1113800CBB
:100540004000B4FBF0F408E0240906E0640904E08C
:10055000A40902E0E40900E0240A00F00BFD41F2E6
:100560000301884208D8174884422868816813D854
:1005700021F48071816070BD13496008884204D8FD
:100580002868816821F44071F4E71049884206D850
:100590002868816821F4407141F48071EAE70C49D0
:1005A00088422868816804D821F4407141F40071C0
:1005B000E0E741F44071DDE7002002400021024005
:1005C00000600258002D3101105E5F0020BCBE00AB
:1005D00040787D01FEE7704772B6FEE72DE9F047EF
:1005E000044690F850009AB00D4601284FF00009DB
:1005F00015D0012084F85000002715971697DFF8D2
:10060000E880216841450ED1384E0096304603F00F
:100610001DFB8246206803F019FB60B10EE002204A
:100620001AB0BDE8F087606D40F0200060650120E1
:1006300084F85070F4E7BAF1000F09D0606D40F013
:10064000200060654FF0010984F850704846E7E7E4
:1006500020684346984201D0B04201D1244800E0CE
:10066000244840F61F722968DFF88CC00029816891
:1006700021F440411FD0D5F8048041EA080181608F
:100680002168994201D0B14207D19968B368C1F39A
:100690000001C3F30003194303E0DCF80810C1F3C1
:1006A00000010029D0D12B68A9680B4381689143D0
:1006B0000B438360C8E781602168994201D0B14251
:1006C00007D19968B368C1F30001C3F3000319436C
:1006D00003E0DCF80810C1F300010029B4D18168FF
:1006E00091438160B0E700000020024000210240F9
:1006F0000023024000630258006002582DE9F84FC1
:100700004FF000090446DFF890830D46CDF80090C5
:10071000CB4690F85000E14EDFF884A3012807D0C3
:10072000012784F85070206803F08CFA18B166E154
:100730000220BDE8F88F286800280DDB2168CA690F
:10074000030329D090FAA0F0B0FA80F000F01F0067
:1007500007FA00F00243CA61D5E9002120680C23A2
:1007600003EA91131844036B01F01F014FF01F0CB3
:10077000C2F384620CFA01FC8A4023EA0C0313439F
:100780000363206803F05EFA0090206803F052FAD9
:100790000099014303D07EE0C0F38460D6E7AA68E5
:1007A0002968206803F056FABE480068B7EB107F4E
:1007B00006D168692168C968C1F38201490008E06F
:1007C0002168C868C0066869F5D5C96801F01001DC
:1007D00049088840296904292DD023682A6803EB39
:1007E00081010B6E02F0F842024303F00043134311
:1007F0000B66697E22682869012916D0002102EB68
:100800008000026E22F000420A430266297E2068C0
:100810002A6901290CD00021036902F01F0223F488
:10082000F04391400B43036135E04FF00041E6E7B0
:100830004FF40061F0E72068016E2A7801F0F8417A
:10084000B1EB826F03D1016E21F000410166206897
:10085000416E2A7801F0F841B1EB826F03D1416E0D
:1008600021F0004141662068816E2A7801F0F8414C
:10087000B1EB826F03D1816E21F000418166206867
:10088000C16E2A7801F0F841B1EB826F03D1C16EDD
:1008900021F00041C166206803F0D0F9002873D12F
:1008A00020682A7B296850F8C03FC1F3130C23EA63
:1008B0000C0302F0180C7C4A22FA0CF20A40134393
:1008C0000360E968414575D1286801031AD090FAA0
:1008D000A0F1B1FA81F1491C01F01F0109294FEA89
:1008E000003130D8002910D090FAA0F1B1FA81F18E
:1008F00001F1010101F01F0107FA01F708D1C0F36E
:10090000846109E0C0F38461E5E7C0F38461EFE747
:1009100090FAA0F1B1FA81F101F1010101F01F019A
:1009200047EA816102D1C0F3846003E090FAA0F04D
:10093000B0FA80F000F1010000F01F0000EB400071
:1009400041EA005132E000290DD090FAA0F1B1FA4D
:1009500081F101F1010101F01F0107FA01F705D151
:10096000C0F3846106E0C0F38461F2E790FAA0F17D
:10097000B1FA81F101F1010101F01F0147EA816142
:1009800003D1C0F3846004E03FE090FAA0F0B0FA35
:1009900080F0464A00F1010000F01F0000EB40002B
:1009A00002EB005041EA000141F00071AA682068A2
:1009B00003F050F92A68002A27DA3D4B20683D4DA4
:1009C000DFF8F4C0984201D0B04201D1294600E0DE
:1009D00061468968984201F0E07101D0B04209D1C6
:1009E0009F68D6F80880C7F30007C8F3000847EAF5
:1009F000080703E0DAF80870C7F300074FB1606D2D
:100A000040F0200060654FF0010984F850B048467E
:100A10008FE62A4FBA421CD10F021AD45045F4D1A6
:100A2000984202D0B04200D0654641F40000A96867
:100A300021F0E0710143A960214822490068B0FB20
:100A4000F1F04000801C00E0401E00900028FBD127
:100A5000DBE71D4FBA420BD1CF0109D45045D4D1A9
:100A6000984202D0B04200D0654641F080700DE05F
:100A7000164FBA42C9D14A02C7D45045C5D198428F
:100A800002D0B04200D0654641F48000A96821F050
:100A9000E0710143A960B8E70000FF470021024070
:100AA000006002580010005CFFFF0F00000020FEF5
:100AB000002002400023024000630258000084CB63
:100AC00040000024400D0300000052C70000B8CFD2
:100AD000F8B54FF0000504002E46009502D0606D79
:100AE00010B107E00120F8BD204600F001F9A6652D
:100AF00084F8506020688168C1F3407119B1816841
:100B00006E4A1140816020688168C1F3007181B92B
:100B100081686B4A114041F08051816069486A499F
:100B20000068B0FBF1F0401C00E0401E009000287F
:100B3000FBD120688168C1F3007141B9616D41F05A
:100B400010016165A16D41F00101A165012503F06E
:100B500079F8616DC90600D430B1606D40F01000C5
:100B6000606501252846F8BD606D20F4807040F076
:100B700002006065206803F061F800BB534A2068FA
:100B8000534B904201D0984207D191689E68C1F3BF
:100B90000001C6F30006314303E04E498968C1F302
:100BA000000161B9904201D0984201D14A4800E069
:100BB0004A486168826822F47C120A43826000F02D
:100BC000D9F941F20301884202D9A06810280CD05B
:100BD000A168206B227F0843617D490341EA0241FD
:100BE0000843D1B201290CD010E0617D227F206B37
:100BF000490340F0100041EA0241084340F00C0074
:100C0000EFE7218C364A02EB41410843616A29B182
:100C1000A26A01F47871014342EA01002168CA68BE
:100C2000304B1A400243CA60206803F00BF80646B6
:100C3000206802F0FFFF06431DD1217DE06A40EAF3
:100C400081312068C26844F203039A430A43C260B8
:100C500094F83800012816D02068016921F00101BC
:100C6000016120680169626B21F0704111430161EB
:100C70002046FFF72BFCE06801282068016B21F07B
:100C80000F0110D012E0D4E91010A28F164B0143CF
:100C9000A06C03EB02421043014320680269134B2E
:100CA0001A401143DCE7A269521E11430163606DD3
:100CB00020F0020040F00100606553E7C0FFFF5FD5
:100CC000C0FFFF7F40000024400D030000200240D1
:100CD00000210240006002580023024000630258D5
:100CE0000000FEFF03C0F0FF0100FFFF1EF800FC44
:100CF00010B5B6B00446142130A8FFF795FBC0210B
:100D00006846FFF791FB18492068884229D10021E5
:100D10004FF40020CDE9000180102990684600F0D2
:100D200019FF08B1FFF758FC1048016841F0200195
:100D30000160006800F0200035900C480830016820
:100D400041F004010160006830A900F00400359012
:100D5000102030900320319000203290044800F0A1
:100D600009F836B010BD000000200240D8440258F7
:100D7000000802582DE9F84F694C00224FF0B04AA4
:100D80004FF0010B4FF003084FF00F09C0E00BFAD2
:100D900002F6334073D00D7905F00305012D01D023
:100DA000022D15D18768550008FA05FC27EA0C07C3
:100DB000D1F80CC00CFA05FC4CEA070CC0F808C0CE
:100DC0004568B5430E79C6F3001696402E4346603B
:100DD0000D79ED43AD0708D0C668550008FA05F750
:100DE000BE438F68AF403743C7600D7905F00305F8
:100DF000022D11D1D50800EB85073E6A5507ED0E8F
:100E000009FA05FC26EA0C06D1F810C00CFA05FC1C
:100E10004CEA060CC7F820C00668550008FA05F72A
:100E2000BE430F7907F00307AF40374307604D68B3
:100E300015F4403F6BD03B4D2E6846F002062E6005
:100E40002D6822F0030606F1B04605F00205009574
:100E5000D6F8087495074FEA157C09FA0CF5AF43EC
:100E6000314DA84201D100252EE0304DA84201D1DC
:100E7000012529E02E4DA84202D1022524E046E0BA
:100E80002C4DA84201D103251EE02B4DA84201D1D3
:100E9000042519E0294DA84201D1052514E0284D6B
:100EA000A84201D106250FE0264DA84201D1072511
:100EB0000AE0254DA84201D1082505E0234DA842AE
:100EC00001D1092500E00A2505FA0CF53D43C6F8D5
:100ED0000854DAF8005056464F689D43FF0200D58B
:100EE0001D43356075684F689D43BF0200D51D43A3
:100EF000756065684E689D43B60300D51D43656007
:100F000025684E689D43F60300D51D432560521C9D
:100F10000B6833FA02F57FF43AAFBDE8F88F0000B2
:100F200080000058F444025800000258000402589F
:100F300000080258000C0258001002580014025811
:100F400000180258001C02580020025800240258C1
:100F50000069084000D001207047426921EA02037D
:100F60000A4043EA0241816170470AB181617047DA
:100F70000904FBE701480068000C70470010005CA2
:100F800001488068704700003400002490F8412038
:100F9000202A24D190F84020012A20D0012280F874
:100FA0004020242280F841200268136823F00103C6
:100FB00013600268136823F4805313600268136897
:100FC0000B43136001680A6842F001020A602021A5
:100FD00080F84110002180F8401008467047022038
:100FE000704790F84120202A22D190F84020012A11
:100FF0001ED0012280F84020242280F8412002687F
:10100000136823F0010313600268136823F470630C
:1010100043EA0121116001680A6842F001020A6096
:10102000202180F84110002180F8401008467047C8
:101030000220704770B5040004D094F841000025E8
:1010400010B106E0012070BD204684F8405000F049
:101050004FF8242084F841002068016821F0010144
:1010600001602168606820F0706008612068816814
:1010700021F400418160E0680128A06830D040F48C
:10108000044021688860E0680228206841682AD00E
:1010900021F40061416020684168144A11434160B5
:1010A0002068C16821F40041C160D4E9040108430B
:1010B000A16940EA01202168C860D4E9070108431A
:1010C000216808602068016841F0010101606564E1
:1010D000202084F84100256384F84250002070BD30
:1010E00040F40040CDE741F40061D3E70080000206
:1010F0002DE9F041B6B00446142130A8FFF794F969
:10110000C0216846FFF790F93A4912262068042763
:10111000DFF8E4800025384C884208F1080827D120
:10112000002021950821CDE90010684600F012FD4D
:1011300008B1FFF751FA206840F0020020602068F3
:1011400030A900F002003590C0203090CDE9316523
:101150002A48CDE93357FFF70DFED8F8001041F4C7
:101160000011C8F80010D8F8000000F400103DE0AD
:10117000234988423BD1002121950820CDE9000177
:10118000684600F0E7FC08B1FFF726FA206840F057
:1011900004002060206800F004003590206840F0D2
:1011A00001002060206830A900F0010035904FF464
:1011B00000703090CDE931651248CDE93357FFF723
:1011C000D9FD4FF480703090CDE931650E4830A9DB
:1011D000CDE93357FFF7CEFDD8F8001041F40001F8
:1011E000C8F80010D8F8000000F40000359036B0C0
:1011F000BDE8F08100540040E04402580004025869
:10120000005C004000080258000002580248816853
:10121000027811448160704734000024032010B527
:1012200000F0F6F801F018FB0F4A11681268C1F3DC
:1012300003230E49CB5C03F01F03D84002F00F02DA
:10124000895C0B4A01F01F0120FA01F11160094984
:1012500008600F2000F010F808B1012010BD00F068
:1012600097F8002010BD000018440258586D00087F
:10127000440000244000002410B5102804468AB021
:101280002AD200220146762000F0A2F8762000F053
:1012900091F8154804601548016841F48021016007
:1012A000006808A900F480200990684601F05EFA01
:1012B00001F0C0FA0E4940000E4AB0FBF1F10E48B1
:1012C000026040F2E732491E41600021C0E903217B
:1012D000816001F061FF10B101200AB010BD064825
:1012E00001F0BEFFF9E7000038000024F044025886
:1012F00040420F000048014018080024134A41787A
:101300001160124908310A6822F001020A600B1FBD
:1013100042681A60027BC37A120742EA0362837A48
:1013200042EAC342437B42EA8342837B42EA43422E
:10133000C37B42EA0342437A42EA0322037A0078FB
:1013400042EA430202430A607047000098ED00E061
:10135000BFF35F8F0448016821F4803101600249C6
:10136000002070310860704724ED00E0074940F02C
:101370000100086005487038016841F4803101605F
:10138000BFF34F8FBFF36F8F7047000094ED00E005
:10139000074882B0016841F0020101600068002244
:1013A0000F2100F002000090901E02B000F010B873
:1013B000F4440258002809DB012100F01F0291408B
:1013C0004009800000F1E020C0F8001170470000E3
:1013D0000E4BF0B41B68C3F30223C3F10704042CC3
:1013E00000D904241D1D072D01D2002300E0DB1EBF
:1013F000012606FA04F56D1E0D409D409E40761EA6
:10140000164045EA0601F0BC03F0BABF0CED00E05F
:10141000064A00F0070110684FF6FF03184040EA43
:101420000120034908431060704700000CED00E004
:101430000000FA05124970B50A68D243520705D573
:10144000096801F00701814212D117E00A6822F011
:10145000070202430A60FFF793FD094D4FF47A76C5
:101460000446083D06E0FFF78BFD001BB04201D9A2
:10147000012070BD2868C0438004F4D4002070BDF2
:101480000C48025810B501F0A1F905490968054A50
:10149000C1F30211515C01F01F01C84010BD0000F2
:1014A00020440258586D00084F4910B50A68096871
:1014B00002F003024C4B1B1DC1F305111B684A4C83
:1014C00003F001030C3424680029C4F3CC0414FB9A
:1014D00003F300EE103AB8EE400A7FD09FED431AB6
:1014E0009FED432A404BF7EE000A083322B1012A50
:1014F00066D0022A22D16AE03B4A283A1468A40640
:101500001CD51268C2F3C1043A4AE24001EE902AA7
:10151000F8EE612A01EE901AF8EE611A196882EE6F
:10152000A12AC1F3080101EE901AF8EE611A40EE0B
:10153000011A31EEA00A22EE000A12E001EE901A22
:101540001968F8EE611AC2EE212AC1F3080101EE12
:10155000901AF8EE611A40EE011A31EEA00A22EE5E
:10156000800A1968C1F3462101EE101AB8EE411A3B
:1015700031EE201AC0EE011ABCEEE11A80ED001A1D
:101580001968C1F3064101EE101AB8EE411A31EEA6
:10159000201AC0EE011ABCEEE11A80ED011A19689A
:1015A000C1F3066101EE101AB8EE411A71EE200A7D
:1015B00080EE201ABCEEC10A80ED020A10BD0DE0DB
:1015C00001EE901ADFED0C2AF8EE611AA6E701EEA3
:1015D000901ADFED0A2AF8EE611A9FE700210160F8
:1015E00041608160EAE700002844025800000039A9
:1015F0000024744C0090D0030024744A20BCBE4BDD
:10160000484910B50A68096802F00302454B1B1DE2
:10161000C1F305311B68434C1434C3F30013246831
:10162000C4F3CC0414FB03F300EE103AB8EE400A06
:10163000E9B33C4B9FED3C1A1033F7EE000A62B160
:10164000DFED3A1A012A01D0022A5ED002EE101A0A
:10165000F8EE422A81EEA22A1AE0324A283A1468A9
:10166000A4060DD51268C2F3C104314AE24001EE6E
:10167000902AF8EE612A01EE901AF8EE611A05E060
:1016800001EE901ADFED2B2AF8EE611A82EEA12A04
:101690001968C1F3080101EE901A1968F8EE611A91
:1016A00040EE011A31EEA00A22EE000A00E033E01B
:1016B000C1F3462101EE101AB8EE411A31EE201A9C
:1016C000C0EE011ABCEEE11A80ED001A1968C1F3F0
:1016D000064101EE101AB8EE411A31EE201AC0EEA2
:1016E000011ABCEEE11A80ED011A1968C1F3066116
:1016F00001EE101AB8EE411A71EE200A80EE201A9F
:10170000BCEEC10A80ED020A10BD01EE901ADFEDB9
:101710000A2AF8EE611AB9E7002101604160816090
:1017200010BD000028440258000000390024744A0B
:101730000090D0030024744C20BCBE4B484910B527
:101740000A68096802F00302454B1B1DC1F30551ED
:101750001B68434C1C34C3F300232468C4F3CC043B
:1017600014FB03F300EE103AB8EE400AE9B33C4B29
:101770009FED3C1A1833F7EE000A62B1DFED3A1A1A
:10178000012A01D0022A5ED002EE101AF8EE422A97
:1017900081EEA22A1AE0324A283A1468A4060DD52E
:1017A0001268C2F3C104314AE24001EE902AF8EE19
:1017B000612A01EE901AF8EE611A05E001EE901A26
:1017C000DFED2B2AF8EE611A82EEA12A1968C1F327
:1017D000080101EE901A1968F8EE611A40EE011A3C
:1017E00031EEA00A22EE000A00E033E0C1F3462108
:1017F00001EE101AB8EE411A31EE201AC0EE011AAD
:10180000BCEEE11A80ED001A1968C1F3064101EE41
:10181000101AB8EE411A31EE201AC0EE011ABCEED1
:10182000E11A80ED011A1968C1F3066101EE101A80
:10183000B8EE411A71EE200A80EE201ABCEEC10A01
:1018400080ED020A10BD01EE901ADFED0A2AF8EED3
:10185000611AB9E7002101604160816010BD00009C
:1018600028440258000000390024744A0090D00334
:101870000024744C20BCBE4B2DE9F04FB24C80F4D8
:101880008078B04A89B0DFF8BCA24FF080572511AC
:10189000AE4BDFF8BC92503A58EA0108AAF10406B0
:1018A0004FF0005C33D080F4007858EA01085DD036
:1018B000DFF890B280F4806858EA01080BF1080B59
:1018C00066D080F4006858EA010878D080F4805827
:1018D00058EA01086BD080F4005858EA01084FF428
:1018E00080394FF4003E77D080F4002858EA010890
:1018F00073D080F4803858EA01086FD080F48046B5
:101900000E436CD080F40040084369D02AE0DAF836
:10191000000000F00700052824D2DFE800F08FB9AE
:101920007D25AE0006A8FFF7BFFD079809B0BDE80A
:10193000F08F6846FFF764FE0098F7E703A8FFF70B
:10194000FDFE0398F2E71068C0F3C10024FA00F02E
:10195000ECE71168C90572D5B84270D12846E5E7B1
:101960001846E3E70020E1E74846DFE7DAF8000041
:1019700000F4E07080284FD004DC00285ED04028BE
:10198000F0D185E0C028EFD0B0F5807FEAD174E0D7
:10199000DBF8000000F46000B0F5800F3CD007DCFD
:1019A00000284BD0B0F5001FDCD171E007E01FE04C
:1019B000B0F5C00FD8D0B0F5000FD3D15DE0DBF8A3
:1019C000000000F0E060B0F1007F25D009DCA8B392
:1019D000B0F1807FC6D15BE022E045E06AE077E0CD
:1019E0009AE0B0F1407FBFD0B0F1806FBAD144E04F
:1019F000DAF8000000F4E040B0F5005F0CD004DC41
:101A0000E0B1B0F5805FADD142E0B0F5405FABD062
:101A1000B0F5804FA6D130E010688000A2D58DE7E8
:101A2000DAF8000000F4E020B0F5403F6BD007DCAE
:101A300068B1484579D0704594D156E07DE033E0F7
:101A4000B0F5802F63D0B0F5A02F8BD171E000F0FE
:101A5000DFFE6BE76846FFF7D3FD019866E703A852
:101A6000FFF76CFE049861E7DBF8000010F44030EB
:101A70000ED0484510D0704588D13068116800F00C
:101A8000405049077FF565AF00287FF462AF5AE701
:101A900010680001C2D54CE710688000BED503A8CD
:101AA000FFF74CFE059841E711688903B6D56045FC
:101AB00090D155E7306810F480303ED0484589D148
:101AC00010680001AAD56846FFF79AFD02982DE735
:101AD000DBF8000000F0E040B0F1405F13D008DC1C
:101AE00070B1B84221D060458DD110688000B6D465
:101AF00038E7B0F1804F0AD0B0F1A04FF8D118E02C
:101B0000FFF7C0FC12E710684007F1D51BE710682B
:101B1000C005EDD522E708E0DAF8000010F04050EB
:101B200007D0B84209D06045E2D11068000191D4D5
:101B300018E710688003DBD512E710688001D7D55D
:101B4000F0E60000504402580090D00340787D0138
:101B50000080BB002DE9FC5F044600680025FA4FB9
:101B6000C043DFF8E8832E46010104F1080001902C
:101B700004F1280000901DD4A06E50B1B0F5801F74
:101B80000CD0B0F5001F0ED0B0F5401F1ED00125BF
:101B90000FE0386840F40030386017E00198022107
:101BA00002F0CEFB03E00098022102F053FC050096
:101BB0000CD02E462088C043C00523D4A06D052834
:101BC0001ED2DFE800F00C11161B1B00D8F8001025
:101BD000A26E21F440111143C8F80010EAE73868FA
:101BE00040F40030386009E00198002102F0A8FBC1
:101BF00003E00098002102F02DFC054675B100E0DD
:101C000001252E462088C043800528D4E06D802819
:101C10001ED00CDC90B140280ED114E0D8F8001092
:101C2000A26D21F007011143C8F80010EAE7C028AF
:101C300013D0B0F5807F10D001250FE0386840F454
:101C40000030386009E00198002102F079FB03E0E0
:101C50000098002102F0FEFB05468DB12E4620883B
:101C6000DFF8EC92C04340052CD4D4F8A800B0F5BE
:101C7000800F20D00DDCA0B1B0F5001F0FD115E012
:101C8000D8F80010E26D21F4E0711143C8F800109B
:101C9000E5E7B0F5C00F13D0B0F5000F10D0012567
:101CA0000FE0386840F40030386009E00198002106
:101CB00002F046FB03E00098002102F0CBFB054652
:101CC0007DB12E462088C04300052DD4D4F8AC0049
:101CD000B0F1007F21D00EDCA8B1B0F1807F10D12F
:101CE00016E0D9F80010D4F8A82021F460011143BF
:101CF000C9F80010E6E7B0F1407F13D0B0F1806F73
:101D000010D001250FE0386840F40030386009E059
:101D10000198002102F014FB03E00098002102F07A
:101D200099FB054675B12E462068C04380011FD43B
:101D3000E06CD8B110280FD0202812D0302815D050
:101D4000012514E0D9F80010D4F8AC2021F0E061AE
:101D50001143C9F80010E7E7386840F400303860F4
:101D600004E00198022102F0EBFA054675B12E4617
:101D70002088C043C0042BD4206EB0F5005F20D073
:101D80000DDCA0B1B0F5805F0FD115E06F48001FEA
:101D90000168E26C21F0300111430160E8E7B0F521
:101DA000405F13D0B0F5804F10D001250FE03868A8
:101DB00040F40030386009E00198002102F0C0FAD8
:101DC00003E00098002102F045FB05468DB12E4648
:101DD0002088C043800429D4606EB0F5403F23D0F2
:101DE00010DC08B3B0F5803F14D0B0F5003F0FD140
:101DF00015E0D8F80010226E21F4E0411143C8F834
:101E00000010E5E7B0F5802F0ED0B0F5A02F0BD075
:101E100001250AE00198012102F092FA03E00098FE
:101E2000012102F017FB054695B12E462088C043DC
:101E300040042AD4D4F8B000B0F1405F23D010DCC5
:101E400008B3B0F1805F14D0B0F1005F0FD115E09E
:101E5000D8F80010626E21F4E0211143C8F8001098
:101E6000E4E7B0F1804F0ED0B0F1A04F0BD00125C8
:101E70000AE00198012102F063FA03E000980121D1
:101E800002F0E8FA054675B12E462088C0430004EA
:101E90001FD4206FD8B1B0F1805F0ED0B0F1005FD9
:101EA00010D0012514E0D9F80010D4F8B02021F0AA
:101EB000E0411143C9F80010E7E7386840F400300A
:101EC000386004E00198012102F03AFA054675B144
:101ED0002E462068C043C0011ED4A06CD0B101289A
:101EE0000ED0022811D0032814D0012513E0D8F811
:101EF0000010226F21F040511143C8F80010E8E7AC
:101F0000386840F40030386004E00198022102F0A3
:101F100017FA05467DB12E462068DFF838B0C04379
:101F2000400256D40C48016841F480710160FFF70B
:101F300027F8824618E00548001F0168A26C21F0CE
:101F4000030111430160E7E72C4402585044025852
:101F5000584402581044025800480258FFF710F83D
:101F6000A0EB0A0064282CD8FE480068C005F5D50F
:101F700045BBFD480068B4F8B41000F4407001F4AB
:101F8000407188420CD0F8480168026821F4407121
:101F900042F480320260026822F480320260016002
:101FA000D4F8B400B0F5807F1AD1FEF7E9FF82467D
:101FB00009E0FEF7E5FFA0EB0A0141F2883081421B
:101FC00001D9032504E0E84800688007F1D53DB158
:101FD0002E462078DFF894A3C043C00720D03BE012
:101FE000D4F8B400C0F3012103290ED0DBF80010AF
:101FF00021F47C51CBF80010DB480168B4F8B42020
:10200000C2F30B0211430160E3E7DBF80020D84B79
:1020100022F47C5203EA10100243CBF80020EBE7D5
:10202000E06F182816D005DCA0B1082808D01028C9
:1020300004D10AE020280DD028280BD001250AE081
:102040000198012102F07CF903E00098012102F0DF
:1020500001FA054665B12E462078C04380071ED49C
:10206000A06F062819D2DFE800F0160C111616161C
:10207000DAF80010E26F21F038011143CAF80010BD
:10208000EAE70198012102F05BF903E000980121E1
:1020900002F0E0F905467DB100E001252E462078EA
:1020A000C04340071FD4D4F89400062819D2DFE8B3
:1020B00000F0160C11161616DAF80010A26F21F0B7
:1020C00007011143CAF80010E9E70198012102F065
:1020D00037F903E00098012102F0BCF90546A5B1EB
:1020E00000E001252E462078C04380062BD4D4F88A
:1020F0009000B0F1405F24D011DC10B3B0F1805FEC
:1021000015D0B0F1005F10D116E0D9F80010D4F866
:10211000942021F007011143C9F80010E3E7B0F162
:10212000804F0ED0B0F1A04F0BD001250AE00198EE
:10213000002102F005F903E00098022102F08AF97B
:10214000054695B12E462078C04340062BD4D4F8DE
:102150009C00B0F5406F24D011DC10B3B0F5806F57
:1021600015D0B0F5006F10D116E0DAF80010D4F8F1
:10217000902021F0E0411143CAF80010E3E7B0F5E8
:10218000805F0ED0B0F5A05F0BD001250AE001986A
:10219000002102F0D5F803E00098022102F05AF97C
:1021A000054695B12E462078C04300062BD4D4F8BE
:1021B000A000B0F5C04F24D011DC10B3B0F5005F23
:1021C00015D0B0F5804F10D116E0D9F80010D4F832
:1021D0009C2021F4E0511143C9F80010E3E7B0F569
:1021E000004F0ED0B0F5204F0BD001250AE001982A
:1021F000002102F0A5F803E00098022102F02AF97C
:10220000054655B12E462078C04300071ED4D4F8A9
:102210008400B0F5805F0AD00FE0D9F80010D4F840
:10222000A02021F460411143C9F80010EBE70098A9
:10223000022102F00FF900B10126DAF80010D4F8FB
:10224000842021F440511143CAF800102078C04383
:10225000C00613D4D4F89800B0F5807F05D100985B
:10226000022102F0F7F800B10126D9F80010D4F8E5
:10227000982021F440711143C9F800102068C04330
:10228000000316D4D4F8A40038B1B0F5803F09D0CB
:10229000B0F5003F0BD001250AE00198002102F0C3
:1022A0004FF803E00098022102F0D4F805468DB102
:1022B0002E462068C043400322D4D4F88800B0F5ED
:1022C000801F11D0B0F5001F13D0B0F5401F15D0FE
:1022D000012514E0D9F80010D4F8A42021F44031ED
:1022E0001143C9F80010E4E7386840F40030386062
:1022F00004E00098012102F0ADF805465DB12E46DC
:102300002068C043C0031CD4206D70B1B0F5803F7D
:1023100010D0012514E0DAF80010D4F8882021F458
:1023200040111143CAF80010EAE7386840F4003061
:10233000386004E00198022102F002F805462DB34E
:102340002E462068C043800005D40098022102F088
:1023500081F800B101262068C043800324D4D4F85A
:10236000800007E000480258704402585444025864
:10237000CFFFFF00B0B1B0F5807F0FD0B0F5007F88
:1023800010D0B0F5407F0DD001250CE05A4801680F
:10239000226D21F4803111430160D2E7386840F4A6
:1023A00000303860F5B32E462068C043C00207D421
:1023B000D8F80010626F21F000411143C8F80010F6
:1023C0002068C043C00008D4DBF80010D4F8B8205F
:1023D00021F480411143CBF800102068C0438002F3
:1023E00007D4D8F80010E26E21F080711143C8F8CC
:1023F00000102068C04340000CD4DBF8001021F42A
:102400000041CBF80010DBF80010D4F8BC201143D9
:10241000CBF800102068C04308D43748016821F089
:10242000405100E017E0626D114301602068C04335
:10243000000208D4DAF80010D4F88C2021F440010E
:102440001143CAF8001020790025C04300F00100B4
:1024500028430AD00FE0DAF80010D4F8802021F4E5
:1024600040711143CAF800109EE70198002101F065
:1024700067FF00B106462079C04300F00200284300
:1024800005D10198012101F05BFF00B106462079DA
:10249000C04300F00400284305D10198022101F057
:1024A0004FFF00B106462079C04300F008002843E2
:1024B00005D10098002101F0CDFF00B1064620793A
:1024C000C04300F01000284305D10098012101F01D
:1024D000C1FF00B106462079C04300F0200005434B
:1024E00004D10098022101F0B5FF00B916B1012016
:1024F000BDE8FC9F0020FBE74C4402582DE9F05F4B
:1025000004000D467ED0DFF84492D9F8000000F0B8
:102510000F00A8420CD2D9F8001021F00F01294376
:10252000C9F80010D9F8000000F00F00A84269D1E6
:102530002078874E40070AD52069316801F0700184
:10254000884204D9316821F070010143316020785C
:10255000DFF8008200070CD560694146D8F80020FA
:1025600002F07002904204D90A6822F0700202431D
:102570000A602078C0060CD5A0694146D8F8002032
:1025800002F4E062904204D90A6822F4E062024355
:102590000A602078DFF8C0B180060CD5E0695946A2
:1025A000DBF8002002F07002904204D90A6822F0A1
:1025B000700202430A60207880070AD5E06831681B
:1025C00001F00F01884204D9316821F00F01014365
:1025D00031602078C0073DD03068A16820F4706079
:1025E000084330605A4960681839022818D0032817
:1025F00019D00968012819D04907002949DADFF8FC
:1026000050A100E045E0AAF1080ADAF8001021F034
:1026100007010143CAF80010FEF7B2FC074611E0BB
:1026200009688903E9E709688901E6E7C905E4E77C
:10263000FEF7A6FCC11B41F28830814202D903207B
:10264000BDE8F09FDAF80000616800F03800B0EBF8
:10265000C10FEDD1207880070AD5E068316801F01C
:102660000F01884204D2316821F00F01014331602B
:10267000D9F80010484601F00F01A9420BD90168B2
:1026800021F00F0129430160006800F00F00A8420B
:1026900001D00120D4E7207840070AD520693168AD
:1026A00001F07001884204D2316821F070010143C9
:1026B0003160207800070CD560694146D8F80020C9
:1026C00002F07002904204D20A6822F070020243C3
:1026D0000A602078C0060CD5A0694246D8F80010E0
:1026E00001F4E061884204D2116821F4E061014301
:1026F0001160207880060CD5E0695946DBF800208F
:1027000002F07002904204D20A6822F07002024382
:102710000A6000F0A1F83168C1F303220F498A5C16
:1027200002F01F02D040326802F00F02895C0C4AAE
:1027300001F01F0120FA01F111600A4908600A48FE
:102740000068BDE8F05FFEF797BD00000020005272
:10275000184402581C44025820440258586D00087E
:102760004400002440000024380000243F2202607E
:10277000144A126802F007024260124A08321368D3
:1027800003F470638360136803F00F03C36012687F
:1027900002F0700202610B4A0C32136803F07003FE
:1027A0004361126802F4E0628261064A10321268E4
:1027B00002F07002C2610448006800F00F00086077
:1027C00070470000104402580020005200B500F08D
:1027D00043F80B4A11681268C1F303230949CB5C23
:1027E00003F01F03D84002F00F02895C064A01F093
:1027F0001F0120FA01F11160044A1060084600BD73
:1028000018440258586D0008440000244000002479
:1028100000B5FFF7DBFF05490968054AC1F302115E
:10282000515C01F01F01C84000BD00001C4402586B
:10283000586D000800B5FFF7C9FF05490968054A4A
:10284000C1F30221515C01F01F01C84000BD00002E
:102850001C440258586D0008434830B50068444C89
:1028600010F03801414808D00211082903D010297E
:102870000BD018290BD0104630BD21688906FBD536
:102880002168C1F3C101C84030BD3A4830BD364966
:1028900018310A68096802F00302334B1C33C1F394
:1028A00005111B68304D03F0010324352D68C5F375
:1028B000CC0515FB03F300EE103AB8EE400AE9B37D
:1028C000294BDFED2D0A2033B7EE001A62B1DFEDA0
:1028D0002B1A012A01D0022A3CD002EE101AF8EE7F
:1028E000422A81EEA22A17E0226892060CD52268BD
:1028F000C2F3C102D04001EE900AF8EE612A01EE67
:10290000901AF8EE611A05E001EE901ADFED1C2A2C
:10291000F8EE611A82EEA12A1868C0F3080001EEF1
:10292000900A1868F8EE611A40EE201A31EE810A1A
:1029300022EE000AC0F34620401C00E011E000EE49
:10294000900AF8EE600A80EE201ABCEEC10A10EE82
:10295000100A30BD01EE901ADFED0A2AF8EE611A76
:10296000D8E7002030BD0000104402580090D0038A
:102970000044025840787D01000000390024744A68
:102980000024744C20BCBE4B2DE9F05F040079D0CC
:102990002078DFF8F8A3FE4EFE4DC00747D0DAF8E6
:1029A0000000316800F03800102815D0182803D135
:1029B00001F0030002280FD06068B0F5803F12D00C
:1029C00010B1B0F5A02F18D0286820F4803028600E
:1029D000286820F4802009E02868800327D56068F3
:1029E0000028D4D023E0286840F480302860606854
:1029F00088B1FEF7C5FA074609E0286840F4802050
:102A00002860F0E7FEF7BCFAC01B642872D828687B
:102A10008003F7D50BE0FEF7B3FA074604E0FEF7B4
:102A2000AFFAC01B6428F1D828688003F7D4207857
:102A300041F20309D84F800766D5DAF80000316803
:102A400010F038000ED0182801D188070AD0E068AD
:102A500080B3296821F0190101432960FEF790FA3B
:102A600080462EE02868400702D5E06800288ED016
:102A70002868E16820F0190008432860FEF780FA12
:102A8000804606E0D8E0FEF77BFAA0EB08000228BB
:102A9000BCD828684007F6D5FEF76CFA48451AD826
:102AA0002069402811D0396821F47C3141EA003096
:102AB000386029E016E0FEF763FAA0EB0800022870
:102AC000A4D828684007F6D5E6E7386820F47C30BB
:102AD00040F40030ECE73868217C20F0FE4040EA0A
:102AE0000160E5E7286820F001002860FEF748FA59
:102AF000804606E000E1FEF743FAA0EB080002285A
:102B000084D828684007F6D42078C0065AD5DAF869
:102B10000000316800F03800DFF870B20828ABF12F
:102B2000040B10D0182803D101F0030001280AD0AB
:102B3000E0690028286836D040F080002860FEF761
:102B40001FFA804621E02868C00521D5E069802869
:102B500072D11DE0206A20281FD0396821F0F84189
:102B600041EA806038602DE0DBF8001094F8202006
:102B700021F07C5141EA0261CBF8001022E0FEF71F
:102B8000FFF9A0EB080002289AD82868C005F6D5FE
:102B9000FEF7F0F94845E7D8DCE7386820F0F84060
:102BA00040F08040DEE720F080002860FEF7E8F982
:102BB000074604E0FEF7E4F9C01B0228A0D8286805
:102BC000C005F7D42078000728D5714960694C31D9
:102BD000002888460846096810D041F001010160CC
:102BE000FEF7CEF9074604E0FEF7CAF9C01B02283B
:102BF00086D8D8F800008007F6D50FE021F0010153
:102C00000160FEF7BDF9074604E0FEF7B9F9C01B05
:102C1000022871D8D8F800008007F6D42078800602
:102C200023D5A0690028286810D040F4805028607F
:102C3000FEF7A6F9074605E038E1FEF7A1F9C01B4B
:102C4000022859D828688004F7D50EE020F4805077
:102C50002860FEF795F9074604E0FEF791F9C01BDE
:102C6000022849D828688004F7D4207840074DD539
:102C7000DFF82881D8F8001041F48071C8F80010FE
:102C8000FEF77EF9074604E0FEF77AF9C01B6428D8
:102C900032D8D8F80000C005F6D53D4FA0684837B7
:102CA00001280AD008B1052813D0386820F00100A7
:102CB0003860386820F0040002E0386840F0010015
:102CC0003860A06841F2883990B1FEF759F9804622
:102CD0000AE0386840F004003860EEE7FEF750F98B
:102CE000A0EB0801494507D838688007F6D50DE004
:102CF000FEF746F9804606E083E0FEF741F9A0EBD7
:102D0000080149457DD838688007F6D4616AD9B38F
:102D1000DAF800004FF6F87BDFF8748008F1080855
:102D2000C0F3C200032808F10409A8F1040A69D01D
:102D30002868022920F08070286003D0FEF720F96F
:102D4000044688E0FEF71CF9074604E0FEF718F990
:102D5000C01B02287CD828688001F7D4306840F274
:102D6000F3318843E16A40EA0110A16A0843306008
:102D700094F83400218E4002491EA0F5007080B204
:102D8000C1F3080108430BE0B3E00000104402580F
:102D9000284402580044025804440258004802588B
:102DA000218F4FF4FE02491E02EA0141084394F8C4
:102DB0003C101202491E02EA01610843C8F80000F3
:102DC000DAF80010504621F00101CAF80010D9F8D5
:102DD0000020A36C22EA0B0242EAC302C9F80020D9
:102DE000DAF80010226C21F00C011143CAF800102F
:102DF000DAF80010626C21F00201114301600168F1
:102E000001E025E02BE041F480310160016841F4EC
:102E100000310160016841F480210160016841F0E6
:102E200001010160286840F080702860FEF7A8F872
:102E3000044604E0FEF7A4F8001B022808D828681E
:102E40008001F7D555E0FEF79BF8001B022802D958
:102E50000320BDE8F09F28688001F4D449E032687F
:102E6000D8F80000012921D0A36A02F00301994299
:102E70001CD1E16AC2F30512914217D1216BC0F354
:102E80000802491E8A4211D1616BC0F34622491ED5
:102E900091420BD1A16BC0F30642491E914205D16C
:102EA000E16BC0F30660491E814201D00120D0E7EA
:102EB000D9F800004F46A16CC0F3CC00814218D075
:102EC000DAF80000564620F00100CAF80000FEF7CC
:102ED00057F80546FEF754F8A842FBD03868A16CB5
:102EE00020EA0B0040EAC1003860306840F0010081
:102EF00030600020ADE700002DE9F041040027D04C
:102F00000025A562554F2068554A564BB84206D059
:102F1000904204D0984202D0E1680F2918D8E16BA2
:102F2000012606EB511CE1680831C908B84201FBD3
:102F30000CF105D0904203D0984201D0082907D85F
:102F4000B84203D0904201D0984204D1102902D94E
:102F50000120BDE8F08194F8810020B9204684F872
:102F6000805000F081F8022084F881002068016818
:102F700021F0010101602068816801F4F812A16963
:102F8000B1F1806F10D16168B1F5800F01D019B136
:102F90000AE0A16B21B107E0A16BB1F1805F03D121
:102FA000016841F4805101606068400209D5E06821
:102FB000072806D320680168236D21F48071194326
:102FC00003E02068016821F480710160A16AE06972
:102FD0000843E16B11430843E168084321688860B6
:102FE000616A606BA2690843A16B114308432169C0
:102FF000084361690843216A084361680843E16C3A
:103000000843A1680843A16C0843A16D08432168E7
:10301000C860606868B92068816821F4C05141F4D3
:10302000006181602068816821F4C06141F48061A1
:1030300081602068016D21F0010101656068400236
:1030400006D52068C168626D21F000411143C1605E
:10305000C4F8845084F8816000207AE70030014091
:1030600000380040003C004010B5B6B004461421C2
:1030700030A8FDF7D9F9C0216846FDF7D5F9184900
:10308000206888422AD18114002018900446CDE996
:1030900000106846FEF75EFD08B1FDF79DFA114885
:1030A000016841F480510160006800F4805035905F
:1030B0000C481038016841F001010160006830A936
:1030C00000F001003590E02030900220CDE931047D
:1030D0000520CDE933400448FDF74CFE36B010BD65
:1030E00000300140F0440258000002587047704719
:1030F00070470000F0B590F83C20012A3CD0012533
:1031000080F83C50022280F83D2003685A689C6891
:103110001A4E1B4FB34201D0BB4204D122F4700CB3
:103120004A6842EA0C0222F0700C0A6842EA0C0279
:103130005A600268B24213D0B2F1804F10D0114BE6
:103140009A420DD0104B9A420AD0104B9A4207D0A7
:10315000BA4205D00E4B9A4202D00E4B9A4204D18D
:10316000896824F080031943916080F83D50002164
:1031700080F83C100846F0BD0220F0BD0000014080
:10318000000401400004004000080040000C004022
:10319000001800400040014010B5040003D094F82E
:1031A0003D0010B107E0012010BD002084F83C0074
:1031B000204600F023F8022084F83D002068211DFD
:1031C00001F0CAFA012084F8480084F83E0084F82F
:1031D0003F0084F8400084F8410084F8420084F8FD
:1031E000430084F8440084F8450084F8460084F8DD
:1031F000470084F83D00002010BD000010B586B0E7
:10320000044614216846FDF70FF9124920688842E8
:103210001ED11148016841F002010160006800F010
:10322000020005900C480838016841F00201016075
:103230000068002100F0020005901020009002209C
:10324000CDE90101CDE9031004486946FDF792FD7F
:1032500006B010BD00040040E844025800040258C3
:1032600090F83D10012901D001207047022180F81B
:103270003D100168CA6842F00102CA600068134943
:10328000884214D0B0F1804F11D0114988420ED03D
:10329000104988420BD01049884208D00F49884213
:1032A00005D00F49884202D00E49884207D1816873
:1032B0000D4A1140062906D0B1F5803F03D00168C0
:1032C00041F0010101600020704700000000014052
:1032D0000004004000080040000C004000040140D1
:1032E00000180040004001400700010070472DE930
:1032F000F041054690F83C0000260C46012810D00D
:10330000012085F83C0072B1042A1CD0082A2CD078
:103310000C2A50D00126002085F83C003046BDE83C
:10332000F0810220FBE7E3682868D4E9001201F08D
:103330008BFC2868816921F00C0181612868816912
:10334000A26811430FE0E3682868D4E9001201F095
:10335000CDFC2868816921F4406181612868816918
:10336000A26841EA02218161D5E72868D4E9002CEE
:10337000277B036A016A21F480710162C16923F429
:10338000206321F0030141EA0C0121F0F00C390720
:103390004FF4206707EA02221A434CEA1161C16127
:1033A00002622868C16921F00C01C1612868C16905
:1033B000A26811432AE02868D4E90032E168076A6C
:1033C000D0F820C02CF4805CC0F820C0D0F81CC01D
:1033D0002CF4407C4CEA02224FF6FF7C22F470422F
:1033E0000CEA01311143C16127F420424FF4204718
:1033F00007EA0333134303622868C16921F440617B
:10340000C1612868C169A26841EA0221C16182E7FD
:1034100010B5040003D094F83D0010B107E001207E
:1034200010BD002084F83C00204600F022F8022065
:1034300084F83D002068211D01F08EF9012084F8F8
:10344000480084F83E0084F83F0084F8400084F887
:10345000410084F8420084F8430084F8440084F872
:10346000450084F8460084F8470084F83D000020B9
:1034700010BD70472DE9F04104460068C668056933
:103480004FF00007A90713D5B10711D5F91E016147
:1034900001202077206880698007204602D0FFF74E
:1034A00025FF04E000F0C8F8204600F09BF92777DC
:1034B000680716D5700714D521686FF004000861FD
:1034C000022020772068806910F4407F204602D0D7
:1034D000FFF70CFF04E000F0AFF8204600F082F99F
:1034E0002777280715D5300713D521686FF0080016
:1034F0000861042020772068C0698007204602D038
:10350000FFF7F4FE04E000F097F8204600F06AF9B7
:103510002777E80616D5F00614D521686FF010005D
:103520000861082020772068C06910F4407F204699
:1035300002D0FFF7DBFE04E000F07EF8204600F04A
:1035400051F92777E80708D0F00706D021686FF017
:1035500001000861204600F047F9280601D4A804BC
:1035600008D5300606D521686FF402500861204660
:10357000FFF7BDFDE80508D5300606D521686FF4D4
:10358000807008612046FFF7B1FD680608D5700617
:1035900006D521686FF040000861204600F057F919
:1035A000A8060AD5B00608D521686FF0200008618A
:1035B0002046BDE8F041FFF79BBDBDE8F08100006B
:1035C00070B586B0044614216846FCF72DFF2068CC
:1035D000B0F1804F28D11548016841F00101016028
:1035E000016801F001010591016841F002010160EB
:1035F000006800240125694600F0020005900320C0
:10360000009002260A48CDE90164CDE90345FDF7A3
:10361000B1FB4FF440600090CDE901640548694674
:10362000CDE90345FDF7A6FB06B070BDE0440258A6
:103630000000025800040258704770B5044690F824
:103640003C0000260D4601280BD0012084F83C00E8
:103650000C2A4AD007DC82B1042A20D0082A06D1DD
:1036600031E0022070BD102A53D0142A63D0012605
:10367000002084F83C00304670BD206801F0DEF880
:103680002068816941F0080181612068816921F029
:1036900004018161206881692A69114311E0206871
:1036A00001F01AF92068816941F4006181612068A4
:1036B000816921F480618161206881692A6941EA18
:1036C00002218161D4E7206801F04EF92068C169C8
:1036D00041F00801C1612068C16921F00401C161A4
:1036E0002068C1692A69114311E0206801F084F95A
:1036F0002068C16941F40061C1612068C16921F499
:103700008061C1612068C1692A6941EA0221C16101
:10371000AEE7206801F0AAF92068416D41F0080188
:1037200041652068416D21F0040141652068416DCB
:103730002A69114311E0206801F0D0F92068416D39
:1037400041F4006141652068416D21F4806141656B
:103750002068416D2A6941EA0221416588E710B578
:10376000040003D094F83D0010B107E0012010BD23
:10377000002084F83C00204600F022F8022084F863
:103780003D002068211D00F0E7FF012084F848007B
:1037900084F83E0084F83F0084F8400084F841003B
:1037A00084F8420084F8430084F8440084F845001B
:1037B00084F8460084F8470084F83D00002010BDDE
:1037C00008B50068B0F1804F08D10548016841F0A4
:1037D00001010160006800F00100009008BD0000D8
:1037E000E84402587047000000680349884201D14C
:1037F000FDF70CBD704700000048014070B504465D
:1038000090F83C00012810D0012584F83C5002209B
:1038100084F83D00204601F099F9002138B184F880
:103820003D50012084F83C1070BD022070BD20681E
:10383000C26822F04002C2602068C26822F480425E
:10384000C26084F83D50002084F83C1070BD704781
:1038500090F88410012918D0012180F884102421C7
:10386000C0F8881001680A680B6823F001030B6038
:1038700022F0005100224266036819602021C0F83E
:10388000881080F88420104670470220704770B579
:10389000044690F8840001281DD0012084F884009B
:1038A0002420C4F8880020680568026822F001021C
:1038B00002602068826822F060620A4382602046CB
:1038C00001F030FA206805602020C4F8880000204C
:1038D00084F8840070BD022070BD70B5044690F875
:1038E000840001281DD0012084F884002420C4F81D
:1038F000880020680568026822F0010202602068E2
:10390000826822F060420A438260204601F00AFA8F
:10391000206805602020C4F88800002084F8840016
:1039200070BD022070BD10B5040003D0D4F888002B
:1039300010B107E0012010BD002084F8840020466B
:1039400000F026F82420C4F888002068016821F0DF
:1039500001010160A06A10B1204601F005FA20467D
:1039600001F0E6FA0128E6D02068416821F4904190
:1039700041602068816821F02A0181602068016827
:1039800041F0010101602046BDE8104001F050BA4D
:103990002DE9F043B7B00446142130A8FCF744FDEC
:1039A000C0216846FCF740FD6D49022520684FF0B4
:1039B00000086C4CDFF8B091884224D10021CDF88A
:1039C00094800420CDE900016846FEF7C3F808B1F1
:1039D000FCF702FE63481430016841F00801016001
:1039E000006800F008003590206840F00100206079
:1039F000206830A900F0010035904FF4C06081E8E4
:103A00002101032026E0574E5849083688422AD122
:103A10000020CDF878800221CDE900106846FEF73D
:103A200099F808B1FCF7D8FD306840F40020306008
:103A3000306800F400203590206840F001002060DC
:103A4000206830A900F0010035904FF4C05081E8A3
:103A50002101062030A9CDE933804846FDF78AF9D7
:103A600037B0BDE8F08342490727884224D10020BF
:103A7000CDF878800221CDE900106846FEF76AF89B
:103A800008B1FCF7A9FD306840F4003030603068C0
:103A900000F400303590206840F00100206020687C
:103AA00030A9CDF8C88000F0010035900C20CDE998
:103AB0003005CDE93387D0E72E49884226D1002151
:103AC000CDF878800220CDE900016846FEF742F883
:103AD00008B1FCF781FD306840F480203060306828
:103AE00000F480203590206840F0080020602068B5
:103AF00030A9CDF8C88000F0080035904FF4407030
:103B0000CDE930051C48CDE93387A7E71B4988423A
:103B1000A6D10020CDF87C800121CDE900106846B7
:103B2000FEF718F808B1FCF757FD0E481030016891
:103B300041F020010160006800F02000359020680D
:103B400040F004002060206830A900F004003590A7
:103B5000C02081E821010A48CDE933877EE70000D3
:103B6000000C0058E044025800000258004C00408D
:103B70000044004000480040000C0258001401407E
:103B8000000802582DE9F8430446D0F888001F4683
:103B900015460E46202802D00220BDE8F883AEB1BB
:103BA000A5B10020C4F890002120C4F88800183482
:103BB000FDF7E6F9A5878146E5874FF0200854F820
:103BC000100C183CB0F5805F02D003E00120E4E760
:103BD000206910B13546002610E000250EE0802156
:103BE000204601F073FBB8B9D5B115F8010B216877
:103BF0008862B4F85600401EA4F85600B4F8560087
:103C00004B464FF0000200970028E8D14FF04001EA
:103C1000204601F05BFB40B1C4F888800320BCE77C
:103C200036F8020BC0F30800E1E7C4F888800020F2
:103C3000B3E7FEE78068C0F3C00070478068C0F358
:103C4000000070478068C0F3800070478068C0F350
:103C500080007047042303EAD153184410B5436928
:103C60000724C1F304518C408A40A34313434361AA
:103C700010BD000030B58BB0002468461C210794AD
:103C800008940994FCF7D0FB1C4804251A49C0E9A4
:103C9000001484600121C0E9034504754475816105
:103CA000047744628462C4620463446380F83840E9
:103CB000FCF70EFF08B1FCF78FFC104807A907942A
:103CC000FCF78CFC08B1FCF787FC0D4869460090B6
:103CD0000620CDE9010440F2FF7003900748CDE9CA
:103CE00004548DF81940FCF709FD002801D0FCF7B9
:103CF00073FC0BB030BD000000200240080300241C
:103D00001000C0101D4810B5A0B01CAC0FC884E84E
:103D10000F0000211CA801F03BFD194C1C22174983
:103D2000103120616846FCF766FB0021684601F00F
:103D3000BBFD12491C22206007A82C31FCF75BFB5D
:103D4000002107A801F0B0FD0C491C2260600EA8FC
:103D50004831FCF750FB00210EA801F0A5FD0749F2
:103D60001C22A06015A86431FCF745FB002115A8B2
:103D700001F09AFDE06020B010BD0000B06C0008BA
:103D8000200000242DE9F04F87B014216846FCF78D
:103D90004BFB4848016841F010010160016801F0E7
:103DA00010010591016841F080010160016801F096
:103DB00080010591016841F004010160016801F092
:103DC00004010591016841F001010160016801F001
:103DD00001010591016841F002010160016801F0F3
:103DE00002010591016841F00801016000684FF48B
:103DF000E075DFF8C4A0002200F008002946059015
:103E00005046FDF7B2F8DFF8B4B040F201460022A8
:103E100031465846FDF7A9F848F210072848002215
:103E20003946FDF7A2F84FF4815826480022414652
:103E3000FDF79BF84FF48069234800224946FDF7BF
:103E400094F8002440F23F2069460294CDE9000432
:103E50005046FCF78FFF00950125CDE901546946D6
:103E600050460394FCF786FF00966946CDE901545D
:103E700058460394FCF77EFF00976946CDE901544C
:103E80000F480394FCF776FFCDF800806946CDE932
:103E900001540C480394FCF76DFF02206946CDE9FC
:103EA0000095CDE902400848FCF764FF07B0BDE883
:103EB000F08F0000E0440258001002580008025839
:103EC0000000025800040258000C02581348012256
:103ED000114910B50160124941600021C0E9021288
:103EE000016141618161C1610162FDF7A3F808B11F
:103EF000FCF772FB09480021FDF748F808B1FCF710
:103F00006BFB06480021FDF76CF8002803D0BDE8E4
:103F10001040FCF761BB10BD005400406C0300244E
:103F2000FFECC01013480122114910B5016012497D
:103F300041600021C0E90212016141618161C161FA
:103F40000162FDF777F808B1FCF746FB094800214C
:103F5000FDF71CF808B1FCF73FFB06480021FDF710
:103F600040F8002803D0BDE81040FCF735BB10BD79
:103F7000005C0040C0030024FFECC01018480C2275
:103F8000164910B501604FF4E131416000218160B4
:103F9000C160C0E9041281610162416281624166CF
:103FA000FFF7C1FC08B1FCF717FB0D480021FFF734
:103FB00094FC08B1FCF710FB09480021FFF767FCEF
:103FC00008B1FCF709FB0648FFF742FC002803D0C4
:103FD000BDE81040FCF700BB10BD0000000C00580D
:103FE0001404002415480322134910B501604FF44E
:103FF000800141600021C0E902124FF0806201613E
:10400000C0E90512C1611201016241628162C162AF
:10401000C0E90D21C163016441648164C16401652B
:1040200041658165FEF768FF002803D0BDE81040B8
:10403000FCF7D2BA10BD000000300140F8060024A1
:1040400010B58AB0002468461C210794089409948E
:10405000FCF7EAF920484FF08041C0E90014611EE6
:10406000C0E9024104618461FFF779FB08B1FCF704
:10407000B3FA194807A907940994FFF73BF808B168
:10408000FCF7AAFA60206946CDE900041248002234
:1040900002940494FFF7D1FA08B1FCF79DFA0E4898
:1040A00004226946FFF7C9FA08B1FCF795FA0A48F5
:1040B00008226946FFF7C1FA08B1FCF78DFA0648F5
:1040C0000C226946FFF7B9FA08B1FCF785FA0248F5
:1040D000FFF776FA0AB010BD8007002410B58CB047
:1040E000142107A8FCF7A0F90024204800940194AB
:1040F0001D4902940394049405940694C0E90014A5
:104100004FF6FF71C0E9024104618461FFF744F892
:1041100008B1FCF761FA1548FFF77AF908B1FCF726
:104120005BFA0720CDE90704104807A9FFF766FBF3
:1041300008B1FCF751FA0D48694600940294FEF765
:10414000D9FF08B1FCF748FA0120002203A9CDE904
:104150000340064805940694FFF7C9F8002801D0EB
:10416000FCF73AFA0CB010BD00040040CC07002464
:1041700018480C22164910B501604FF4E131416036
:1041800000218160C160C0E904128161C1610162E6
:1041900041628162FFF7C7FB08B1FCF71DFA0D48C9
:1041A0000021FFF79AFB08B1FCF716FA0948002135
:1041B000FFF76DFB08B1FCF70FFA0648FFF748FB65
:1041C000002803D0BDE81040FCF706BA10BD00007F
:1041D000004C0040A804002418480C22164910B5D1
:1041E00001604FF4E131416000218160C160C0E9AC
:1041F00004128161C161016241628162FFF793FB38
:1042000008B1FCF7E9F90D480021FFF766FB08B19A
:10421000FCF7E2F909480021FFF739FB08B1FCF788
:10422000DBF90648FFF714FB002803D0BDE8104077
:10423000FCF7D2B910BD0000004400403C0500244A
:1042400018480C22164910B501604FF4E131416065
:1042500000218160C160C0E904128161C161016215
:1042600041628162FFF75FFB08B1FCF7B5F90D48C9
:104270000021FFF732FB08B1FCF7AEF90948002135
:10428000FFF705FB08B1FCF7A7F90648FFF7E0FACE
:10429000002803D0BDE81040FCF79EB910BD000017
:1042A00000480040D005002418480C22164910B5DB
:1042B00001604FF4E131416000218160C160C0E9DB
:1042C00004128161C161016241628162FFF72BFBCF
:1042D00008B1FCF781F90D480021FFF7FEFA08B19B
:1042E000FCF77AF909480021FFF7D1FA08B1FCF789
:1042F00073F90648FFF7ACFA002803D0BDE8104078
:10430000FCF76AB910BD00000014014064060024E7
:10431000FEE7FEE700B5B1B0C0216846FCF784F8BF
:1043200000214FF00040CDE9000168461591FDF7EE
:1043300011FC002801D072B6FEE731B000BD0000CC
:104340002DE9F047DFF8088104460E464FF00009DA
:10435000D8F80000C043800709D03D4D283D2868AB
:1043600020F080602860FCF70BFE074607E0012084
:10437000BDE8F087FCF704FEC01B022860D828685F
:104380000001F7D4D8F80010226821F47C3141EA0A
:104390000231C8F80010207A4FF4FE02A1884002D2
:1043A000491EA0F5007080B2C1F308010843A1893D
:1043B000491E02EA01410843217C1202491E02EA19
:1043C000016108432249103108602148001D01683D
:1043D000626921F0C001114301600168A26921F006
:1043E000200111430160016821F0100101601849AA
:1043F00014310A684FF6F8739A43E36942EAC3023C
:104400000A60016841F0100101606EB10168012E7F
:104410000ED041F400110160286840F080602860EF
:10442000FCF7AEFD04460DE0016841F40021F2E71F
:1044300041F48011EFE7FCF7A3FD001B022801D92E
:10444000032095E728680001F5D5484690E700006D
:10445000284402582DE9F047DFF8088104460E464B
:104460004FF00009D8F80000C043800709D03D4D47
:10447000283D286820F080502860FCF781FD074621
:1044800007E00120BDE8F087FCF77AFDC01B022899
:1044900060D828688000F7D4D8F80010228821F06E
:1044A0007C7141EA0251C8F80010207A4FF4FE02F4
:1044B000A1884002491EA0F5007080B2C1F3080136
:1044C0000843A189491E02EA01410843217C1202E6
:1044D000491E02EA01610843224918310860214857
:1044E000001D0168626921F44061114301600168A7
:1044F000A26921F4007111430160016821F4807107
:10450000016018491C310A684FF6F8739A43E36951
:1045100042EAC3020A60016841F4807101606EB131
:104520000168012E0ED041F080710160286840F0D2
:1045300080502860FCF724FD04460DE0016841F43A
:104540008001F2E741F40001EFE7FCF719FD001BE1
:10455000022801D9032095E728688000F5D5484650
:1045600090E70000284402580A4C4FF480754FF43D
:10457000FA7640212046FCF7F0FC80212046FCF72B
:10458000ECFC29462046FCF7E8FC304601F0F4F844
:10459000EFE7000000100258502010B580F311889A
:1045A000BFF34F8FBFF36F8F02F034FA18B1044995
:1045B0004FF080500860002080F3118810BD00008B
:1045C00004ED00E070B59CB04C216846FBF72CFF71
:1045D000202113A8FBF728FF0220FCF72BFF22481D
:1045E0000024016821F00101016000681F48016892
:1045F00041F440410160016801F440411B910168B0
:104600008904FCD54FF4803003264025CDE90060B5
:104610000120CDE903050220099004210A90CDE98B
:104620000B05CDE90D010F900C20CDE91004684673
:104630001294FEF7A9F908B172B6FEE73F2015946F
:10464000CDE9130608201A95CDE91605C00102210F
:10465000CDE9185013A8FDF751FF002801D072B61C
:10466000FEE71CB070BD00002C040058184802582A
:104670002C4810B5016841F4700101602A4A1068A5
:1046800000F00F00072804D2106820F00F00C01DB2
:1046900010602649086840F001000860234B0020A4
:1046A000103318600B68224C23400B60136803F032
:1046B0000F03072B04D9136823F00F03DB1D1360CE
:1046C0001A4A18321060121D1060121D1060174B2C
:1046D000184A28331A601B1D174A1A601B1D174AF7
:1046E0001A601B1D18601B1D1A601B1D18601B1D06
:1046F0001A601A1D10600A6822F480220A600B49B1
:10470000603108600E4800686FF30F00B0F1005F81
:1047100003D20C490120C1F8080143F2D2000A4932
:10472000086010BD88ED00E00020005200440258EF
:104730007FEDF6EA000202020000FF0180020101A3
:104740000010005C00800051004000520148FEF75C
:1047500091BE0000180800242DE9F04702684FF0D0
:10476000804A294C294D2A4EA0422A4F2A4B09D073
:10477000504507D0A84205D0B04203D0B84201D07E
:10478000984204D122F0700C4A6842EA0C02DFF829
:104790008CC0DFF88C80A042DFF888900FD05045A5
:1047A0000DD0A8420BD0B04209D0B84207D09842F1
:1047B00005D0604503D0404501D0484503D122F4DF
:1047C0004075CA682A434D6922F080022A4302607C
:1047D0008A68C2620A688262A04207D0984205D005
:1047E000604503D0404501D0484501D109690163C6
:1047F000012141610169C90703D0016921F001016B
:104800000161BDE8F08700000000014000040040A5
:1048100000080040000C004000040140004001403E
:10482000004401400048014010B5846842EA032278
:104830000A4324F47F442243826010BD2DE9F043F3
:10484000056A026A22F0010202624268836925F069
:1048500002051B4C1C4E23400C6823F003031B4F26
:104860001C438B68DFF868C02B43164DDFF864905B
:10487000A84207D0B04205D0B84203D0604501D06D
:10488000484506D123F00808CB6843EA080323F023
:104890000403A84207D0B04205D0B84203D0604517
:1048A00001D0484505D14D6922F4407215438A690B
:1048B0002A4342608461496841630362BDE8F08332
:1048C0008FFFFEFF00000140000401400040014056
:1048D0000044014000480140F0B5046A026A22F039
:1048E0001002026242688369194D1B4E2B400D680D
:1048F00023F4407343EA052524F020038C6843EA3F
:104900000413144CA04201D0B04206D1CF6823F06A
:10491000800343EA071323F04003A0420AD0B042C9
:1049200008D00E4CA04205D00D4CA04202D00D4C38
:10493000A04207D14C6922F4406242EA84028C69A9
:1049400042EA840242608561496881630362F0BD86
:10495000FF8FFFFE000001400004014000400140C5
:104960000044014000480140F0B5056A026A22F4A3
:10497000807202624268C369194C1B4E23400C6866
:1049800023F003031C4325F400738D6843EA0523D9
:10499000144DA84201D0B04206D1CF6823F4006381
:1049A00043EA072323F48063A8420AD0B04208D028
:1049B0000E4DA84205D00E4DA84202D00D4DA84282
:1049C00007D14D6922F4405242EA05128D6942EA4C
:1049D00005124260C4614968C1630362F0BD000012
:1049E0008FFFFEFF00000140000401400040014035
:1049F000004401400048014030B5046A026A22F4D4
:104A0000805202624268C36924F40054114D2B4065
:104A10000D6823F4407343EA05238D6844EA0534A6
:104A20000D4DA8420BD00D4DA84208D00C4DA84208
:104A300005D00C4DA84202D00B4DA84204D14D69BF
:104A400022F4804242EA85124260C36149680164EF
:104A5000046230BDFF8FFFFE0000014000040140F2
:104A600000400140004401400048014030B5046A64
:104A7000026A22F4803202624268436D114D2B407B
:104A80000D681D4324F400330C8943EA04430E4CA3
:104A9000A0420BD00D4CA04208D00D4CA04205D036
:104AA0000C4CA04202D00C4CA04204D14C6922F420
:104AB000803242EA042242604565496881650362AA
:104AC00030BD00008FFFFEFF0000014000040140E8
:104AD00000400140004401400048014030B5046AF4
:104AE000026A22F4801202624268436D24F40014C8
:104AF000104D2B400D6843EA05230D8944EA055407
:104B00000D4DA8420BD00D4DA84208D00C4DA84227
:104B100005D00C4DA84202D00B4DA84204D14D69DE
:104B200022F4802242EA8522426043654968C165D9
:104B3000046230BDFF8FFFFE000001400004014011
:104B400000400140004401400048014070B5026847
:104B5000002495682F4B1D404B682B432E4D2B4056
:104B60000D681D4395604A68B2F1101F27D014DC10
:104B7000402A2DD007DC12B3102A20D0202A1ED0C4
:104B8000302A1BD11BE0502A38D0602A3CD0702A32
:104B900017D0B2F5801F11D111E02049501A8A4276
:104BA0000DD004DCA2F58012A2F12002E3E7102868
:104BB00005D01B49401802D0102800D001242046FF
:104BC00070BD8A680068D1E90313FFF72DFEF6E790
:104BD0000A68052A10D00268156A136A23F00103D7
:104BE000136202689369096923F0F00343EA011133
:104BF000916100680562E2E7012070BD0A69896879
:104C0000006800F00FF8DAE70A698968006800F0C8
:104C10005BF8D4E78FFFCFFFF8FFFEFF60001000C6
:104C20006000F0FF10B5046A036A23F00103036219
:104C3000836923F0F00343EA0213836124F00A023C
:104C40000A43026210BD000070B5056A046A24F0D0
:104C5000010404628469154EB04214D0B0F1804F53
:104C600011D0134EB0420ED0124EB0420BD0124EA5
:104C7000B04208D0114EB04205D0114EB04202D021
:104C8000104EB04203D124F00304144301E044F079
:104C900001041A0724F0F00425F00A0301F00A01C8
:104CA000194344EA12628261016270BD0000014052
:104CB0000004004000080040000C004000040140D7
:104CC000001800400040014010B5036A046A24F057
:104CD00010040462846923F0A00343EA011124F460
:104CE000704444EA02328261016210BD30B5046A48
:104CF000056A25F010050562856925F4407545EAC9
:104D0000022222F470454FF6FF7202EA033224F0C9
:104D1000A003A0242A43826104EA0111194301621D
:104D200030BD000030B5416EB9B10268916892683B
:104D3000C1F342610B4C520FA35C1D0104F1080347
:104D40009A5CB5FBF2F2A0F86A20625C595C120131
:104D5000B2FBF1F1A0F8681030BD0121A0F86A1093
:104D6000F8E70000486D000890F82810090706D5FC
:104D700001684A68836B22F400421A434A6090F843
:104D80002810C90706D001684A68C36A22F40032B5
:104D90001A434A6090F82810890706D501684A68C6
:104DA000036B22F480321A434A6090F828104907B6
:104DB00006D501684A68436B22F480221A434A6090
:104DC00090F82810C90606D501688A68C36B22F4DA
:104DD00080521A438A6090F82810890606D5016827
:104DE0008A68036C22F400521A438A6090F82810F3
:104DF000490611D501684A68436C22F480121A43AF
:104E00004A60416CB1F5801F06D101684A68836C25
:104E100022F4C0021A434A6090F82810090606D509
:104E200001684A68C06C22F4002202434A6070475D
:104E30002DE9F84300250446C0F89050FCF7A0F88F
:104E40008046206800686FF07E474FF0200600071C
:104E500013D50022434631042046009700F036FA6D
:104E600058B1206850E8001F21F0800140E800128E
:104E7000002AF6D1C4F8886021E020680068400765
:104E800022D5002243464FF480012046009700F0CF
:104E90001DFAC8B1206850E8001F21F4907140E865
:104EA0000012002AF6D12068083050E8001F21F0D7
:104EB000010140E80012002AF5D1C4F88C600320FB
:104EC00084F88450BDE8F883C4F88860C4F88C6026
:104ED000E5662567002084F88450F3E710B5016883
:104EE00051E8002F22F4907241E80023002BF6D104
:104EF0000E4B0168083151E8002F1A4041E80024A8
:104F0000002CF6D1C16E012908D1016851E8002FAB
:104F100022F0100241E80023002BF6D12021C0F836
:104F20008C100021C166416710BD0000FEFFFFEF3D
:104F30002DE9F043044600680025DFF8548387B06C
:104F40002269A168E369114362691A431143026847
:104F5000D04B1A400A43026020684168E26821F49D
:104F60004051114341602168A069414501D0226A46
:104F700010438A68C84B1A4002438A602068C16A9D
:104F8000626A21F00F011143C162C4492268C4481A
:104F90008A420ED1006800F03800182873D047DC30
:104FA000B8B3082879D010286FD178E028287ED1AE
:104FB0007BE0BC498A4209D1006800F0070006285E
:104FC00075D2DFE800F0546A6C6E7072B6498A429E
:104FD00009D1006800F00700062868D2DFE800F079
:104FE000475D5F616365B1498A4209D1006800F09D
:104FF000070006285BD2DFE800F03A5052545658BA
:10500000AB498A420BD1006800F0070006284ED257
:1050100000E010E0DFE800F02B4143454749A54997
:105020008A420AD1006800F03800182839D0B7DD6C
:105030002028BBD137E001213AE09F498A4209D1BB
:10504000006800F00700062831D2DFE800F01026E3
:10505000282A2C2E99498A420BD1006800F00700BB
:10506000062824D2DFE800F003191B1D1F210021B0
:105070001EE042451BD18A48001D006800F0070071
:10508000062814D202E00CE007E010E0DFE800F0B0
:10509000030507090B0D02210AE0042108E008219D
:1050A00006E0102104E0202102E0402100E0802100
:1050B00083487B4B4FF4004C824E4FF000090711A0
:1050C000543B42454DD1102919D006DC022909D0A4
:1050D00004290AD008297DD10CE020293DD040299F
:1050E00078D13CE0FCF7CEF910E06846FCF788FA8E
:1050F00001980BE003A8FCF721FB049806E019686F
:10510000890605D51968C1F3C101C840002823D01C
:10511000616A36F811206668B0FBF2F106EB4603CF
:105120008B4257D8B1EB063F54D800234F4619465F
:10513000FBF730F90902020241EA10617008101809
:10514000324679410023FBF725F95F4AA0F540710B
:1051500091423FD82168C86086E03846D8E760466B
:10516000D6E7E2694FF6EF78624545D1082918D0B5
:1051700005DC59B101290CD0042974D10CE01029A7
:1051800014D0202934D040296DD133E0FDF740FB05
:1051900013E0FDF74FFB10E06846FCF731FA019889
:1051A0000BE003A8FCF7CAFA049806E01968890620
:1051B00004D51968C1F3C101C84080B3616A36F8EB
:1051C0001110B0FBF1F04100606801EB5001B1FB40
:1051D000F0F000E047E0A0F11002424543D84FF65E
:1051E000F0710140C0F3420001432068C1603BE020
:1051F0003846E3E76046E1E7082919D005DC59B1F4
:1052000001290DD004292ED10DE0102915D0202917
:1052100037D0402927D136E0FDF7FAFA14E023E031
:10522000FDF708FB10E06846FCF7EAF901980BE08F
:1052300003A8FCF783FA049806E01968890604D5E8
:105240001968C1F3C101C84070B1616A36F8111024
:10525000B0FBF1F1606801EB5001B1FBF0F0A0F19F
:105260001001414511D901250120A4F86A00A4F8D4
:1052700068002846C4F87490C4F8789007B0BDE878
:10528000F0833846E1E76046DFE780B262E700007E
:10529000000C0058F369FFCFFFF4FF11001001402C
:1052A000544402580044004000480040004C004074
:1052B000005000400014014000780040007C004095
:1052C0000090D003306D0008FFFC0F002DE9F0477F
:1052D0001F4690460D460446089E4FF0000932E0F6
:1052E000701C30D0FBF74CFEC01BB04218D8BEB1CA
:1052F00020680168490726D5802D24D0402D22D072
:10530000C169C94309070DD4082505622046FFF786
:10531000E5FDC4F89050012084F88490BDE8F08742
:105320000320FBE7C069C04300050CD421684FF49B
:10533000006008622046FFF7D1FD2020C4F89000ED
:1053400084F88490ECE72068C06935EA000004D056
:1053500000204045C4D00020E0E70120F9E7FEE747
:105360000FB4054B10B503A9044A029800F028F8C1
:1053700010BC5DF814FB000005560008B0000024C6
:105380000907090E002804DB00F1E02080F8001472
:10539000704700F00F0000F1E02080F8141D704706
:1053A00002E008C8121F08C1002AFAD170477047EE
:1053B000002001E001C1121F002AFBD1704700004C
:1053C0002DE9FF4F89B09B460446002506E02528BD
:1053D0000BD05A460B999047641C6D1C207800280E
:1053E000F5D10DB02846BDE8F08F0027B846012260
:1053F000474900E0074314F8013F203B02FA03F05D
:105400000842F7D120782E2819D114F8010F47F05F
:1054100004072A280ED06FF02F022078A0F1300167
:1054200009290CD808EB880102EB410100EB0108C7
:10543000641CF2E70A98641C50F8048B0A902078E8
:105440000028CED0642808D0692806D075281ED040
:105450005A460B9990476D1C58E00A994FF00A097B
:1054600001C90A91002802DA40422D2102E03905E3
:1054700004D52B218DF82010012103E0F90704D079
:105480002021F7E78A4608AE0DE00021FAE70A99E5
:105490004FF00A0901C90A91F7E74946FAF7CFFF29
:1054A000303106F8011D0028F7D1ADEB060000F100
:1054B0002009780701D44FF00108C84502DDA8EBA8
:1054C000090000E000208046002706E008A85A46B0
:1054D000C05D0B9990476D1C7F1C5745F6DB04E0BF
:1054E00030205A460B9990476D1CB8F10001A8F185
:1054F0000108F5DC05E016F8010B5A460B999047B8
:105500006D1CB9F10001A9F10109F4DC641C65E727
:10551000092801000E4C4FF48065012229462046DF
:10552000FBF723FD012000F027F903230A4809A116
:105530001A46FEF727FB012000F01EF9002229463B
:105540002046FBF712FD0A2000F016F9E5E70000FF
:10555000000C025831323300D00500240B461146AE
:1055600010B504461846FBF7F3FC60700022A178E2
:105570001A4B012901D060B100E010B1012815D00B
:1055800015E00120E070A2802078000640F4803110
:1055900018E061B90220E070A088401C81B2A180AF
:1055A0002078000640F4003001430BE019B1E270AE
:1055B0006078A07010BD0320E070A2802078000603
:1055C00040F440311868002200F040F90028EFD084
:1055D00003A0FFF7C5FEFAF7FFFFE9E7300000245C
:1055E0006572726F21216572726F21212C6B657952
:1055F0002071756575652069732066756C6C212155
:105600000D0A000013B5044801224FF6FF736946E6
:10561000FEF7B8FA00981CBD14040024EFF30580CF
:10562000002800D0012070471FB500250095019586
:1056300002950395FBF78CFE01208DF80C001F21CD
:105640008DF8081087218DF809108DF80D008DF860
:10565000000068468DF80A508DF80E508DF8015004
:1056600001958DF80B508DF80F50FBF747FE042085
:10567000FBF77CFE354C2068800311D4BFF34F8FBD
:10568000BFF36F8F32480560BFF34F8FBFF36F8F4B
:10569000206840F400302060BFF34F8FBFF36F8F5E
:1056A0002068C00322D4294870300560BFF34F8FB3
:1056B000001F006843F6FF75254E1036C0F34E31CB
:1056C000C0F3C90305EA4112184642EA8077376001
:1056D000401EFAD2491EF5D2BFF34F8F206840F426
:1056E00080302060BFF34F8FBFF36F8FFBF796FDC5
:1056F000FEF768FFFEF70EFEFEF744FBFEF73EFCEA
:10570000FEF79EFDFEF7E2FBFEF732FDFEF7CCFD55
:10571000FEF796FCFEF7AEFAFEF704FCFEF75CFD22
:10572000FEF760FCFEF7DAFC03230B4809A11A46DA
:10573000FEF728FA0323094806A11A46FEF722FAC3
:10574000FEF7E0FA00F01FF8FEE7000014ED00E0BD
:1057500050EF00E03132330014040024D00500245F
:1057600001460020842900D0C81C704700F004FBCB
:105770000A2000F001F8F9E710B500B9012000F0A7
:10578000E1FC002010BD10B500F028FD002010BD88
:1057900038B5D0E9011204683AB1C3682BB10020D2
:1057A0000090204600F021FE38BD2046BDE838407C
:1057B000002200F0F9BD00002DE9FF410E004FF07E
:1057C00000070546CDE901761ED000240397501C42
:1057D0001FD002B11446FFF721FF69464FF01008B1
:1057E000E8B1091D304603AA01F024F8012813D0BE
:1057F00000970398E8B114494FF080500860BFF358
:105800004F8FBFF36F8F14E08020394632460090EF
:1058100011E04FF0FF34DEE7CDF80080E9E7091D25
:105820002246304600F06AFF012808D054B14020DB
:1058300000909DE8070085E80700BDE8FF81CDF8EE
:105840000080F6E70020F3E704ED00E037B582B012
:10585000054614004FF00000009000D10124FFF72E
:10586000DDFE4FF0000388B103A96A46284600F028
:10587000E5FE012811D1009890B10A494FF08050FF
:105880000860BFF34F8FBFF36F8F09E003A9224673
:10589000284600F021FE012802D0FF2005B030BDCF
:1058A0000020FBE704ED00E07FB50D4641690446AA
:1058B000B0F9080081B1A16971B1FFF751FFD4E9D6
:1058C00005122B468DE807002269D4E9001001F08B
:1058D00066F8039004B070BDFFF742FF03A92B46A2
:1058E000CDE90001208A82B2D4E9001001F02AF843
:1058F000012801D00020EDE70398EBE72DE9F04106
:10590000184E0F460446F5683068001D00F028FB6D
:1059100038B9306890F82C100120884031698143F3
:105920003161601C07D137B13168BDE8F0410E48E4
:10593000091D00F059BB30682C44AC42446031680A
:1059400005D2B06B091DBDE8F04100F035BB706BAE
:10595000091D00F031FBB06A844200D2B462BDE898
:10596000F081000048000024400900242DE9F041A6
:10597000054600F045FB2E4EB068401CB060306814
:105980002C4F10B1706940B32DE03560B06801282C
:1059900029D1002404EB840007EB800000F0FEFA1C
:1059A000641C072CF6D323488C3000F0F7FA21480A
:1059B000A03000F0F3FA1F48B43000F0EFFA1D48B1
:1059C000C83000F0EBFA1B48DC3000F0E7FA194869
:1059D0008C3070631430B06305E03068E96AC06AE7
:1059E000884200D835600121706A401C7062E86A04
:1059F000326981401143316100EB8000291D07EBC2
:105A0000800000F0F1FA00F01BFB706900280CD058
:105A10003068E96AC06A884207D207494FF080506F
:105A20000860BFF34F8FBFF36F8FBDE8F0810000B8
:105A3000480000246408002404ED00E030B4026C47
:105A40000B46002A0BD0C1681144C1608468A14292
:105A500001D30168C160184630BCFAF7CCBC30BC39
:105A600070472DE9F041856B002617460446026C0D
:105A700082B1C7B1E068FAF7BEFCE168206C091A90
:105A8000E1602268914202D2A168081AE060022F08
:105A900016D017E02068A8B9A06801F021F80646E2
:105AA0000020A0600EE06068FAF7A5FC216C606839
:105AB00008446060A168884204D32068606001E007
:105AC00005B16D1E6D1CA5633046BDE8F08110B5B3
:105AD000044690F8510058B101280CD002280FD08C
