:020000040800F2
:10000000584D002471030008B95B0008AB53000889
:10001000B55B00083106000805710008000000000B
:10002000000000000000000000000000B102000815
:1000300035060008000000000D030008F55E00080A
:100040008B0300088B0300088B0300088B03000858
:100050008B0300088B0300088B0300088B03000848
:100060008B0300088B0300088B0300088B03000838
:100070008B0300088B0300088B0300088B03000828
:100080008B0300088B0300088B0300088B03000818
:100090008B0300088B0300088B0300088B03000808
:1000A0008B0300088B0300088B0300088B030008F8
:1000B0008B0300088B0300088B0300088B030008E8
:1000C0008B0300088B0300088B0300088B030008D8
:1000D0008B0300088B0300088B0300088B030008C8
:1000E0008B0300088B030008000000008B0300084E
:1000F0008B0300088B0300088B0300088B030008A8
:100100008B0300088B0300088B0300088B03000897
:100110008B0300088B0300088B0300088B03000887
:100120008B0300088B0300088B0300088B03000877
:100130008B0300088B0300088B0300088B03000867
:1001400000000000000000000000000000000000AF
:100150008B0300088B0300088B0300088B03000847
:100160008B0300088B0300088B0300088B03000837
:100170008B0300088B0300088B03000800000000BD
:100180008B0300088B0300088B0300088B03000817
:100190008B0300088B0300088B0300088B03000807
:1001A0008B0300088B0300088B0300088B030008F7
:1001B0008B0300088B0300088B0300088B030008E7
:1001C0008B0300088B0300088B0300088B030008D7
:1001D0008B0300088B0300088B0300088B030008C7
:1001E0008B0300088B0300088B0300088B030008B7
:1001F0008B0300088B0300088B0300088B030008A7
:100200008B0300088B0300088B0300088B03000896
:100210008B0300088B030008016100088B030008B2
:100220008B0300088B0300088B030008000000000C
:100230008B0300088B030008000000008B030008FC
:100240008B0300088B0300088B0300088B03000856
:100250008B0300088B0300088B0300088B03000846
:100260008B0300088B0300088B0300088B03000836
:100270008B0300088B0300088B03000800000000BC
:100280008B0300088B0300088B03000800000000AC
:10029000000000008B030008DFF810D000F004F924
:1002A00000480047B9730008AFF30080584D0024A0
:1002B0002C4B19680868B0E8F04F80F30988BFF349
:1002C0006F8F4FF0000080F311887047000000002E
:1002D00008480068006880F308884FF0000080F349
:1002E000148862B661B6BFF34F8FBFF36F8F00DF24
:1002F00000BF00BF08ED00E0DFF80C00016841F42A
:1003000070010160704700BF88ED00E0EFF30980E5
:10031000BFF36F8F134B1A681EF0100F08BF20ED4C
:10032000108A20E9F04F106009B44FF0500080F3BC
:100330001188BFF34F8FBFF36F8F07F0F5FF4FF0BA
:10034000000080F3118809BC19680868B0E8F04F14
:100350001EF0100F08BFB0EC108A80F30988BFF3BD
:100360006F8F704748000024EFF30580704700004E
:100370000648804706480047FEE7FEE7FEE7FEE73F
:10038000FEE7FEE7FEE7FEE7FEE7FEE705600008A2
:10039000990200082DE9F05F0546002092469B4631
:1003A00088460646814640241BE02846414647468B
:1003B000224600F069F853465A46C01A914110D3BC
:1003C00011461846224600F050F82D1A67EB010836
:1003D0004F4622460120002100F047F817EB0009A4
:1003E0004E41201EA4F10104DFDC484631462A4676
:1003F0004346BDE8F09F40EA01039B0703D009E0B4
:1004000008C9121F08C0042AFAD203E011F8013B00
:1004100000F8013B521EF9D27047D2B201E000F859
:10042000012B491EFBD270470022F6E710B5134698
:100430000A4604461946FFF7F0FF204610BD30B5C6
:100440000B46014600202022012409E021FA02F592
:100450009D4205D303FA02F5491B04FA02F528442C
:10046000151EA2F10102F1DC30BD202A04DB203A86
:1004700000FA02F1002070479140C2F1200320FAF7
:1004800003F3194390407047202A04DB203A21FAF5
:1004900002F00021704721FA02F3D040C2F120029D
:1004A0009140084319467047064C074D06E0E06846
:1004B00040F0010394E8070098471034AC42F6D3AB
:1004C000FFF7EEFE1C9200083C92000870B504464F
:1004D0004F492068884203D04E492068884208D19D
:1004E0004D48006800F4403008B1012009E00020C8
:1004F00007E04A48006800F4403008B1012000E0FD
:100500000020B8B103F0EAF905466068B0F5803F15
:1005100006D0B0F5003F04D0B0F5403F08D105E06B
:1005200000BF6068000CB5FBF0F502E0AD0800E02C
:1005300000BF2BE04FF40020002101F0FDFC054638
:100540006068C0F31101F9B980140C281CD2DFE8EF
:1005500000F01B060708090A0B111315171900BF35
:1005600000BF00BF00BF00BF6068800C4000B5FB4B
:10057000F0F50AE02D0908E06D0906E0AD0904E098
:10058000ED0902E02D0A00E000BF00BF00F056FEBA
:1005900041F20301884210D82148854206D92068DB
:1005A000806840F48070216888602FE0206880684F
:1005B00020F480702168886028E06D081948854221
:1005C00006D82068806820F44070216888601DE0AB
:1005D0001548854208D82068806820F4407040F4AF
:1005E00080702168886011E01048854208D8206832
:1005F000806820F4407040F400702168886005E055
:100600002068806840F440702168886070BD0000F8
:1006100000200240002102400823024008630258E3
:10062000002D3101105E5F0020BCBE0040787D01CE
:1006300000BFFEE7704772B600BFFEE72DE9F0434A
:1006400099B004460E464FF00008306800B100BF74
:1006500000BF94F85000012803D1022019B0BDE872
:10066000F083012084F8500000BF00201590169000
:1006700046492068884202D14548009001E00020A8
:100680000090009850B9606D40F02000606500BF98
:10069000002084F8500000BF0120DFE7009804F03C
:1006A0009FFE0746206804F09BFE002861D1002FC2
:1006B0005FD136492068884203D035492068884296
:1006C00001D1344800E034480546306858B3A86882
:1006D00020F4404071680843A8602C492068884293
:1006E00003D02B492068884201D12A4800E02A48DB
:1006F0002849884209D1254804F063FE81462448F0
:1007000004F05FFE49EA000002E0244804F059FECC
:1007100070BBB16830680843A96840F61F72914306
:100720000843A8602BE0A86820F44040A86017495F
:100730002068884203D016492068884201D11548B4
:1007400000E015481349884209D1104804F039FEE9
:1007500081460F4804F035FE49EA000002E00F48E8
:1007600004F02FFE20B9A86840F61F718843A860E6
:1007700005E0606D40F0200060654FF0010800BFAB
:10078000002084F8500000BF404667E70020024088
:10079000002102400023024000630258006002581A
:1007A0002DE9F84F04460D464FF0000A0020009056
:1007B00094F83800012800D100E000BFFA49E86849
:1007C000884200D00EE0F9492068884200D100BF7D
:1007D000F7492068884200D100BFF6492068884266
:1007E00000D100BF00BF94F85000012802D10220C0
:1007F000BDE8F88F012084F8500000BF206804F0A5
:10080000EAFD00287ED1286800F00040A8B92068E1
:10081000C1692868C0F3130018B92868C0F3846060
:1008200004E0286890FAA0F0B0FA80F000F01F020F
:100830000120904001432068C1612168D5E9002072
:1008400001F1300CC0F3012B0CEB8B03D3F800C08B
:1008500000F01F0E4FF01F0B0BFA0EFB2CEA0B0CD7
:1008600000F01F0BC2F3846E0EFA0BFE4CEA0E0C66
:10087000C3F800C000BF206804F0ADFD81462068C9
:1008800004F095FD8046B9F1000F6FD1B8F1000F6B
:10089000FBD1AA682968206804F0A7FDC648006853
:1008A00000F07040B0F1805F07D168692168C968C5
:1008B000C1F382014900884014E02068C06800F05C
:1008C000100038B968692168C968C1F3820149001C
:1008D000884007E068692168C96801F0100189084B
:1008E0004900884007462869042840D020682A68C3
:1008F000296900F1600C0CEB8103D3F800C00CF007
:10090000004C00E0D0E102F0F84B4BEA070B4CEA58
:100910000B0CC3F800C000BF20686A7E2969012A59
:1009200001D1D20700E00022134600F1600C0CEB6D
:100930008102D2F800C02CF0004C4CEA030CC2F843
:1009400000C000BF20682B7E2969012B01D1DB028A
:1009500000E000231A46036923F4F04301F01F0C62
:1009600002FA0CFC43EA0C03036100BF37E0206885
:10097000006E00F0F8402978B0EB816F05D1206857
:10098000006E20F00040216808662068406E00F08C
:10099000F8402978B0EB816F05D12068406E20F0D7
:1009A0000040216848662068806E00F0F840297891
:1009B000B0EB816F05D12068806E20F00040216887
:1009C00088662068C06E00F0F8402978B0EB816F2F
:1009D00005D12068C06E20F000402168C8662068FC
:1009E00004F0EAFC002872D12068EA682968D0F88F
:1009F000C030C1F3130C23EA0C0302F0180BDFF82C
:100A0000BCC12CFA0BFC0CEA010C43EA0C03C0F845
:100A1000C03000BF6449E86888427DD12B68C3F3C9
:100A200013031BB92B68C3F3846304E02B6893FAA8
:100A3000A3F3B3FA83F35B1C03F01F03092B3ED827
:100A40002B68C3F313031BB92B68C3F3846304E05F
:100A50002B6893FAA3F3B3FA83F35B1C03F01F0331
:100A60004FF0010C0CFA03FC2B68C3F313031BB902
:100A70002B68C3F3846304E02B6893FAA3F3B3FAFF
:100A800083F35B1C03F01F034CEA836C2B68C3F3F6
:100A900013031BB92B68C3F3846304E02B6893FA38
:100AA000A3F3B3FA83F35B1C03F01F0303EB4303CD
:100AB0004FF0000B4BEA03534CEA030341E02B6871
:100AC000C3F3130323B92B68C3F3846305E0A9E0E0
:100AD0002B6893FAA3F3B3FA83F35B1C03F01F03B1
:100AE0004FF0010C0CFA03FC2B68C3F313031BB982
:100AF0002B68C3F3846304E02B6893FAA3F3B3FA7F
:100B000083F35B1C03F01F034CEA836C2B68C3F375
:100B100013032BB92B6800E018E0C3F3846304E0EF
:100B20002B6893FAA3F3B3FA83F35B1C03F01F0360
:100B30000A3B03EB43034FF0007B4BEA03534CEAC1
:100B400003031946AA68206804F04FFC286800F0E7
:100B50000040002866D0154A2168914203D0144A0B
:100B60002168914201D1164900E016490846816882
:100B700001F0E07600BF0D492068884203D00C499F
:100B80002068884201D10E4800E00E480C49884296
:100B90001AD1064804F010FC8346054804F00CFC0A
:100BA0004BEA000013E000000000FF470020024075
:100BB00000210240006002580010005CFFFF0F009F
:100BC00000230240006302583E4804F0F5FBE8BBF6
:100BD0003D492868884226D106F4000018BB3949EF
:100BE0002068884266D1394B22689A4203D0384B3C
:100BF00022689A4201D1374A00E0374A104646F44B
:100C0000000104F006FC354800683549B0FBF1F0FE
:100C1000401C4000009002E00098401E00900098A8
:100C20000028F9D146E02F492868884219D106F0FA
:100C30008070B0B92349206888423BD1234B226899
:100C40009A4205D0224B22689A4200E025E001D169
:100C5000204A00E0204A104646F0807104F0D9FB9B
:100C600028E021492868884224D106F4800008BB86
:100C70001449206888421DD1144B22689A4203D03F
:100C8000134B22689A4201D1124A00E0124A1046E0
:100C900046F4800104F0BDFB0CE0606D40F02000E4
:100CA00060654FF0010A05E0606D40F0200060656E
:100CB0004FF0010A00BF002084F8500000BF5046EA
:100CC00096E5000000600258000084CB002002403E
:100CD000002102400023024000630258400000242B
:100CE000400D0300000052C70000B8CF2DE9F84FB7
:100CF00004464FF000090020009014B90120BDE81F
:100D0000F88FE06818B1207F012800D100BF606D26
:100D100030B9204600F030F90020A06584F850007A
:100D200020688168C1F3407131B120688168874AC9
:100D30001140816000BF00BF206804F047FBA8B9E4
:100D400020688168824A114041F08051816000BF73
:100D5000804800688049B0FBF1F0401C009002E040
:100D60000098401E009000980028F9D1206804F0F7
:100D70002DFB48B9606D40F010006065A06D40F03B
:100D80000100A0654FF00109206804F024FB06462D
:100D9000606D00F0100000287ED1002EFCD1606D47
:100DA00020F4807040F002006065206804F004FBCD
:100DB00078BB6A492068884203D069492068884224
:100DC00001D1684800E068486649884209D1634813
:100DD00004F0F2FA8246624804F0EEFA4AEA0000B1
:100DE00002E0624804F0E8FA98B95C4B22689A4243
:100DF00003D05B4B22689A4201D15A4A00E05A4A1A
:100E000010466168826822F47C120A43826000BF47
:100E100000BF00F013FA41F2030188420ED9A06826
:100E200010280BD1607D216B41EA4030A168084356
:100E300040F00C01207F41EA004508E0607D216B15
:100E400041EA4030A1680843217F40EA0145207F04
:100E5000012803D1208C401E45EA4045606A28B134
:100E6000A08C00F47870A16A084305432068C0682C
:100E70003F49084028432168C860206804F0ABFA65
:100E80008046206804F093FA0746B8F1000F3BD182
:100E9000D7BB207DE16A00E050E041EA8035206860
:100EA000C06844F20301884328432168C86094F86D
:100EB0003800012817D1606A08B1A06A00B900BFE4
:100EC000A08F401E012141EA0041206C0843616C63
:100ED0000843A16C084321680969264A1140084368
:100EE0002168086105E02068006920F001002168A0
:100EF00008612068006920F07040616B0843216838
:100F000008612046FFF7E2FAE068012809D120686D
:100F1000006B20F00F00A169491E08432168086397
:100F200005E02068006B20F00F0021680863606D09
:100F300020F0020040F00100606505E0606D40F0C7
:100F4000100060654FF001094846D8E6C0FFFF5F1A
:100F5000C0FFFF7F40000024400D0300002002403E
:100F60000021024000230240006302580060025842
:100F700003C0F0FF1EF800FC10B5B8B00446142101
:100F800032A8FFF751FAC02102A8FFF74DFA1D4918
:100F90002068884234D14FF400210020CDE90210AE
:100FA00088102B9002A801F01FFC08B1FFF743FB4B
:100FB00000BF1548006840F020001349086008464B
:100FC000006800F02000019000BF00BF00BF0E4885
:100FD0000830006840F004000B49083108600846FA
:100FE000006800F00400019000BF00BF10203290A4
:100FF000032033900020349032A9044800F008F810
:1010000038B010BD00200240D844025800080258F1
:10101000F8B502460B4600216F4DD7E001278F40FF
:101020001E6806EA0704002C72D01E7906F003063B
:10103000012E04D01E7906F00306022E13D190680B
:101040004F000326BE40B0434F00DE68BE40304331
:101050009060506801268E40B0431E79C6F300169A
:101060008E40304350601E7906F00306032E09D0EF
:10107000D0684F000326BE40B0434F009E68BE407C
:101080003043D0601E7906F00306022E13D1CF083C
:1010900002F1200656F827004E07F70E0F26BE4035
:1010A000B0434F07FF0E1E69BE403043CF0802F128
:1010B000200646F8270010684F000326BE40B043C4
:1010C0001E7906F003064F00BE40304310605E6894
:1010D00006F44036002E78D000BF404E366846F009
:1010E00002063E4F3E603E46366806F00206009617
:1010F00000BF00BF3A4E8F0856F827008E07370F03
:101100000F26BE40B043374EB24202D100262EE039
:101110005BE0354EB24201D1012628E0334EB242A7
:1011200001D1022623E0324EB24201D103261EE055
:10113000304EB24201D1042619E02F4EB24201D105
:10114000052614E02D4EB24201D106260FE02C4EAA
:10115000B24201D107260AE02A4EB24201D1082646
:1011600005E0294EB24201D1092600E00A268F0788
:101170003F0FBE4030431A4E8F0846F827004FF00D
:10118000B0463068A0435E6806F4801606B120437E
:101190004FF0B04630607068A0435E6806F40016F9
:1011A00006B120434FF0B04670606868A0435E68A7
:1011B00006F4003606B1204368602868A0435E68E4
:1011C00006F4803606B120432860491C1E68CE40D4
:1011D000002E7FF423AFF8BD80000058F44402587D
:1011E0000804005800000258000402580008025881
:1011F000000C02580010025800140258001802583F
:10120000001C0258002002580024025802461369AC
:101210000B400BB1012000E00020704710B542697F
:1012200021EA020302EA010443EA0443836110BD98
:101230000AB1816101E00B048361704701480068D5
:10124000000C70470010005C014800687047000007
:1012500034000024024692F8410020282DD100BF1E
:1012600092F84000012801D102207047012082F845
:10127000400000BF242082F841001068006820F080
:101280000100136818601068006820F4805013682B
:1012900018601068006808431368186010680068D8
:1012A00040F0010013681860202082F8410000BF60
:1012B000002082F8400000BFD7E70220D5E710B534
:1012C00002460B4692F8410020282AD100BF92F82E
:1012D0004000012801D1022010BD012082F8400009
:1012E00000BF242082F841001068006820F001004F
:1012F000146820601068016821F4706141EA0321DC
:10130000106801601068006840F0010014682060F7
:10131000202082F8410000BF002082F8400000BF7A
:10132000DAE70220D8E7000010B504460CB9012026
:1013300010BD94F8410028B9002084F840002046F0
:1013400000F05EF8242084F841002068006820F056
:10135000010021680860606820F070602168086101
:101360002068806820F4004021688860E0680128D7
:1013700005D1A06840F400402168886004E0A068BE
:1013800040F4044021688860E068022806D12068A3
:10139000406840F400602168486005E020684068CB
:1013A00020F40060216848602068406813490843C1
:1013B000216848602068C06820F400402168C86047
:1013C000D4E904010843A16940EA01202168C8600A
:1013D000D4E907010843216808602068006840F0EC
:1013E00001002168086000206064202084F841002A
:1013F0000020206384F8420000BF99E700800002CB
:1014000010B5B8B00446142132A8FFF70DF8C0217A
:1014100002A8FFF709F849492068884235D1082118
:101420000020CDE90210239002A801F0DDF908B1F7
:10143000FFF701F900BF4248006840F00200404950
:1014400008600846006800F00200019000BF00BF7D
:10145000C020329012203390002034903590042028
:10146000369032A93748FFF7D3FD00BF3448083023
:10147000006840F4001032490831086008460068EE
:1014800000F40010019000BF55E02F492068884209
:1014900051D108210020CDE90210239002A801F0CB
:1014A000A3F908B1FFF7C7F800BF2548006840F06E
:1014B0000400234908600846006800F00400019019
:1014C00000BF00BF00BF0846006840F00100086090
:1014D0000846006800F00100019000BF00BF4FF413
:1014E0000070329012203390002034903590042008
:1014F000369032A91548FFF78BFD4FF4807032907B
:10150000122033900020349035900420369032A978
:101510000F48FFF77DFD00BF09480830006840F420
:1015200000000749083108600846006800F4000020
:10153000019000BF00BF38B010BD00000054004053
:10154000E044025800040258005C004000080258C1
:10155000000002580348006803490978084401491B
:1015600008607047340000243C00002410B50320BC
:1015700000F044F902F0FCF910490968C1F30321B5
:101580000F4A515C01F01F0120FA01F40B4800687A
:1015900000F00F001146085C00F01F0024FA00F074
:1015A00008490860084804600F2000F00FF808B1EF
:1015B000012010BD00F0B8F80020FAE718440258E6
:1015C000E8910008440000244000002470B58AB06F
:1015D0000446102C0AD200222146762000F0D0F8D2
:1015E000762000F0B9F81948046002E001200AB042
:1015F00070BD00BF1648006840F4802014490860A0
:101600000846006800F48020009000BF00BF01A9D8
:1016100002A802F02DF902F099F945000D48B5FB3A
:10162000F0F0461E0C480D49086040F2E7310B48C7
:10163000C160466000210161816003F06BF818B958
:10164000064803F0DDF8D2E70120D0E73800002497
:10165000F044025840420F0000480140180800249E
:101660004178154A116014490831096821F00101D7
:10167000114A08321160121F41681160017B09078D
:10168000C27A41EA0261827A41EAC241427B41EA7E
:101690008241827B41EA4241C27B41EA0241427A75
:1016A00041EA0221027A41EA420102781143024AE8
:1016B000083211607047000098ED00E000BF00BFE5
:1016C00000BFBFF35F8F00BF00BF00BF05480068C9
:1016D00020F480300349086000200249703108601E
:1016E0007047000024ED00E040F001010D4A116058
:1016F0000C497039096841F480310A4A703A116026
:1017000000BF00BF00BFBFF34F8F00BF00BF00BFCF
:1017100000BF00BF00BFBFF36F8F00BF00BF00BF9F
:101720007047000094ED00E008B500BF094800686C
:1017300040F00200074908600846006800F0020017
:10174000009000BF00BF00220F21901E00F018F88B
:1017500008BD0000F44402580146084600280DDB8D
:1017600000BF00BF00F01F0301229A4043099B0005
:1017700003F1E023C3F8002100BF00BF00BF7047A2
:101780002DE9F05F80460D46164605F0CDFC074674
:1017900039462A46334601F00700C0F1070ABAF17C
:1017A000040F02D94FF0040A01E0C0F1070AD14644
:1017B00000F1040ABAF1070F02D24FF0000A01E06B
:1017C000A0F1030AD4464FF0010A0AFA09FAAAF175
:1017D000010A0AEA020A0AFA0CFA4FF0010B0BFAA4
:1017E0000CFBABF1010B0BEA030B4AEA0B0421469D
:1017F000404605F0A1FCBDE8F09F000000BF00F0EE
:101800000702064B19684FF6FF031940044B0B43C0
:1018100043EA0221014B196000BF70470CED00E064
:101820000000FA0570B5044615480068C0F3800052
:1018300048B91348006800F00700A04201D0012019
:1018400070BD0020FCE70E48006820F00700204330
:101850000B490860FFF7F8FC054607E0FFF7F4FCCA
:10186000401BB0F57A7F01D90120E9E70448083828
:101870000068C0F340300028F0D00020E0E700000E
:101880000C48025810B502F029F805490968C1F35F
:101890000211044A515C01F01F01C84010BD000054
:1018A00020440258E891000870B50146844D2D6827
:1018B00005F00303824D2D68C5F30510804D2D1DE5
:1018C0002D6805F001047E4D0C352D68C5F3CC055F
:1018D00015FB04F501EE105AB8EE411AF0EE410A7C
:1018E00000286FD023B1012B4ED0022B6BD16BE0BF
:1018F000734D283D2D68C5F340153DB3704D283D0F
:101900002D68C5F3C1066F4D25FA06F201EE102AC7
:10191000F8EE411A01EE100AB8EE411A81EE812A62
:101920009FED691AC0EE811A654D08352D68C5F323
:10193000080501EE105AB8EE411A31EE811AF7EEA1
:10194000001A31EE211A22EE010A1CE001EE100A03
:10195000B8EE411ADFED5D1A81EE812A9FED5A1A29
:10196000C0EE811A564D08352D68C5F3080501EE05
:10197000105AB8EE411A31EE811AF7EE001A31EE24
:10198000211A22EE010A5BE001EE100AB8EE411ABC
:10199000DFED4F1A81EE812A9FED4B1AC0EE811ABE
:1019A000474D08352D68C5F3080501EE105AB8EE0D
:1019B000411A31EE811AF7EE001A31EE211A22EEA9
:1019C000010A3DE077E01DE001EE100AB8EE411A91
:1019D0009FED402AC2EE011A9FED3B1A80EE812A4C
:1019E000374D08352D68C5F3080501EE105AB8EEDD
:1019F000411A32EE011AB7EE002A31EE021A21EE38
:101A0000810A1DE001EE100AB8EE411ADFED2F1A2F
:101A100081EE812A9FED2C1AC0EE811A284D0835DF
:101A20002D68C5F3080501EE105AB8EE411A31EEE3
:101A3000811AF7EE001A31EE211A22EE010A00BFD8
:101A400000BF1F4D08352D68C5F3462501EE105A1D
:101A5000B8EE411AF7EE001A31EE211AC0EE011A63
:101A6000BCEEE11A81ED001A154D08352D68C5F35D
:101A7000064501EE105AB8EE411AF7EE001A31EEA3
:101A8000211AC0EE011ABCEEE11A81ED011A0C4DCB
:101A900008352D68C5F3066501EE105AB8EE411AF7
:101AA000F7EE001A31EE211AC0EE011ABCEEE11A6F
:101AB00081ED021A03E000250D604D608D6070BD60
:101AC000284402580090D003000000460024744CC3
:101AD0000024744A20BCBE4B70B50146844D2D686D
:101AE00005F00303824D2D68C5F30530804D2D1D93
:101AF0002D68C5F300147E4D14352D68C5F3CC0553
:101B000015FB04F501EE105AB8EE411AF0EE410A49
:101B100000286FD023B1012B4ED0022B6BD16BE08C
:101B2000734D283D2D68C5F340153DB3704D283DDC
:101B30002D68C5F3C1066F4D25FA06F201EE102A95
:101B4000F8EE411A01EE100AB8EE411A81EE812A30
:101B50009FED691AC0EE811A654D10352D68C5F3E9
:101B6000080501EE105AB8EE411A31EE811AF7EE6F
:101B7000001A31EE211A22EE010A1CE001EE100AD1
:101B8000B8EE411ADFED5D1A81EE812A9FED5A1AF7
:101B9000C0EE811A564D10352D68C5F3080501EECB
:101BA000105AB8EE411A31EE811AF7EE001A31EEF2
:101BB000211A22EE010A5BE001EE100AB8EE411A8A
:101BC000DFED4F1A81EE812A9FED4B1AC0EE811A8C
:101BD000474D10352D68C5F3080501EE105AB8EED3
:101BE000411A31EE811AF7EE001A31EE211A22EE77
:101BF000010A3DE077E01DE001EE100AB8EE411A5F
:101C00009FED402AC2EE011A9FED3B1A80EE812A19
:101C1000374D10352D68C5F3080501EE105AB8EEA2
:101C2000411A32EE011AB7EE002A31EE021A21EE05
:101C3000810A1DE001EE100AB8EE411ADFED301AFC
:101C400081EE812A9FED2C1AC0EE811A284D1035A5
:101C50002D68C5F3080501EE105AB8EE411A31EEB1
:101C6000811AF7EE001A31EE211A22EE010A00BFA6
:101C700000BF1F4D10352D68C5F3462501EE105AE3
:101C8000B8EE411AF7EE001A31EE211AC0EE011A31
:101C9000BCEEE11A81ED001A154D10352D68C5F323
:101CA000064501EE105AB8EE411AF7EE001A31EE71
:101CB000211AC0EE011ABCEEE11A81ED011A0C4D99
:101CC00010352D68C5F3066501EE105AB8EE411ABD
:101CD000F7EE001A31EE211AC0EE011ABCEEE11A3D
:101CE00081ED021A03E000250D604D608D6070BD2E
:101CF000284402580090D003000000460024744C91
:101D00000024744A20BCBE4B70B50146844D2D683A
:101D100005F00303824D2D68C5F30550804D2D1D40
:101D20002D68C5F300247E4D1C352D68C5F3CC0508
:101D300015FB04F501EE105AB8EE411AF0EE410A17
:101D400000286FD023B1012B4ED0022B6BD16BE05A
:101D5000734D283D2D68C5F340153DB3704D283DAA
:101D60002D68C5F3C1066F4D25FA06F201EE102A63
:101D7000F8EE411A01EE100AB8EE411A81EE812AFE
:101D80009FED691AC0EE811A654D18352D68C5F3AF
:101D9000080501EE105AB8EE411A31EE811AF7EE3D
:101DA000001A31EE211A22EE010A1CE001EE100A9F
:101DB000B8EE411ADFED5D1A81EE812A9FED5A1AC5
:101DC000C0EE811A564D18352D68C5F3080501EE91
:101DD000105AB8EE411A31EE811AF7EE001A31EEC0
:101DE000211A22EE010A5BE001EE100AB8EE411A58
:101DF000DFED4F1A81EE812A9FED4B1AC0EE811A5A
:101E0000474D18352D68C5F3080501EE105AB8EE98
:101E1000411A31EE811AF7EE001A31EE211A22EE44
:101E2000010A3DE077E01DE001EE100AB8EE411A2C
:101E30009FED402AC2EE011A9FED3B1A80EE812AE7
:101E4000374D18352D68C5F3080501EE105AB8EE68
:101E5000411A32EE011AB7EE002A31EE021A21EED3
:101E6000810A1DE001EE100AB8EE411ADFED301ACA
:101E700081EE812A9FED2C1AC0EE811A284D18356B
:101E80002D68C5F3080501EE105AB8EE411A31EE7F
:101E9000811AF7EE001A31EE211A22EE010A00BF74
:101EA00000BF1F4D18352D68C5F3462501EE105AA9
:101EB000B8EE411AF7EE001A31EE211AC0EE011AFF
:101EC000BCEEE11A81ED001A154D18352D68C5F3E9
:101ED000064501EE105AB8EE411AF7EE001A31EE3F
:101EE000211AC0EE011ABCEEE11A81ED011A0C4D67
:101EF00018352D68C5F3066501EE105AB8EE411A83
:101F0000F7EE001A31EE211AC0EE011ABCEEE11A0A
:101F100081ED021A03E000250D604D608D6070BDFB
:101F2000284402580090D003000000460024744C5E
:101F30000024744A20BCBE4B2DE9F04389B006460C
:101F40000F464FF4807186EA0100384370D1F7489C
:101F5000006800F00709B9F1050F65D2DFE809F064
:101F6000031221623000F1485038006800F0007020
:101F7000B0F1007F04D106A8FFF796FC079C00E0B3
:101F8000002453E0E9485038006800F00060B0F1E8
:101F9000006F04D103A8FFF79FFD039C00E000241D
:101FA00044E0E2485038006800F00050B0F1005FB3
:101FB00004D16846FFF7A8FE009C00E0002435E04D
:101FC000DA48001F006800F04055D84850380068D3
:101FD00000F00400042809D145B9D44850380068FD
:101FE000C0F3C101D24820FA01F41AE0CF485038BA
:101FF000006800F48070B0F5807F04D1B5F1805F97
:1020000001D1CC4C0DE0C9485038006800F40030D4
:10201000B0F5003F04D1B5F1005F01D1C64C00E03E
:10202000002403E0C54C01E0002400BFD4E3FFE737
:102030004FF4007186EA010038437AD1BB4800684A
:1020400000F4E079B9F1800F2CD006DCB9F1000F73
:102050000AD0B9F1400F69D115E0B9F1C00F63D0D2
:10206000B9F5807F62D12CE0B0485038006800F0AC
:102070000070B0F1007F04D106A8FFF715FC079CA3
:1020800000E0002454E0A9485038006800F00060E7
:10209000B0F1006F04D103A8FFF71EFD039C00E020
:1020A000002445E0A1485038006800F00050B0F12D
:1020B000005F04D16846FFF727FE009C00E0002483
:1020C00036E09A48001F006800F0405597485038A5
:1020D000006800F00400042809D145B9934850383D
:1020E0000068C0F3C101924820FA01F41BE08F4858
:1020F0005038006800F48070B0F5807F04D1B5F1ED
:10210000805F01D18B4C0EE088485038006800F4A5
:102110000030B0F5003F05D1B5F1005F02D1864C2B
:1021200001E006E0002403E0844C01E0002400BF4D
:1021300052E34FF4806186EA010038437BD17B484B
:102140000830006800F46009B9F5800F2CD006DC77
:10215000B9F1000F0AD0B9F5001F69D115E0B9F542
:10216000C00F63D0B9F5000F62D12CE06F48503832
:10217000006800F00070B0F1007F04D106A8FFF7FE
:1021800093FB079C00E0002454E068485038006846
:1021900000F00060B0F1006F04D103A8FFF79CFCD1
:1021A000039C00E0002445E060485038006800F0DF
:1021B0000050B0F1005F04D16846FFF7A5FD009C18
:1021C00000E0002436E05948001F006800F0405548
:1021D00056485038006800F00400042809D145B979
:1021E000524850380068C0F3C101514820FA01F448
:1021F0001BE04E485038006800F48070B0F5807FD6
:1022000004D1B5F1805F01D14A4C0EE04748503807
:10221000006800F40030B0F5003F05D1B5F1005F73
:1022200002D1454C01E006E0002403E0434C01E00C
:10223000002400BFD0E24FF4006186EA0100384379
:1022400073D13A480830006800F0E069B9F1007FC6
:102250002CD006DCB9F1000F0AD0B9F1807F75D11E
:1022600015E0B9F1407F6FD0B9F1806F6ED12CE0ED
:102270002E485038006800F00070B0F1007F04D1A3
:1022800006A8FFF711FB079C00E0002460E0274848
:102290005038006800F00060B0F1006F04D103A86E
:1022A000FFF71AFC039C00E0002451E01F4850385F
:1022B000006800F00050B0F1005F04D16846FFF7FD
:1022C00023FD009C00E0002442E01848001F006845
:1022D00000F0405515485038006800F0040004280C
:1022E00009D145B9114850380068C0F3C101104800
:1022F00020FA01F427E00D485038006800F480709F
:10230000B0F5807F04D1B5F1805F01D1094C1AE0AE
:1023100006485038006800F40030B0F5003F11D195
:10232000B5F1005F0ED1044C0DE012E050440258AC
:102330000090D00300093D0040787D010080BB0083
:1023400004E001E0002403E0F74C01E0002400BFBA
:1023500042E24FF4805186EA010038437AD1F348D3
:10236000006800F4E048B8F5005F2CD006DCB8F156
:10237000000F0AD0B8F5805F69D115E0B8F5405F6D
:1023800063D0B8F5804F62D12CE0E848503800683F
:1023900000F00070B0F1007F04D106A8FFF784FAC6
:1023A000079C00E0002454E0E0485038006800F04A
:1023B0000060B0F1006F04D103A8FFF78DFB039C10
:1023C00000E0002445E0D9485038006800F0005093
:1023D000B0F1005F04D16846FFF796FC009C00E076
:1023E000002436E0D148001F006800F04055CF4877
:1023F0005038006800F00400042809D145B9CB48E2
:1024000050380068C0F3C101C94820FA01F41BE04C
:10241000C6485038006800F48070B0F5807F04D161
:10242000B5F1805F01D1C34C0EE0C0485038006860
:1024300000F40030B0F5003F05D1B5F1005F02D1E6
:10244000BD4C01E006E0002403E0B74C01E00024AD
:1024500000BFC1E14FF4005186EA0100384367D163
:10246000B248006800F4E028B8F5403F33D009DCFA
:10247000B8F1000F0DD0B8F5803F0ED0B8F5003F91
:1024800053D119E0B8F5802F37D0B8F5A02F4CD133
:102490003FE001F049FA044649E0A448503800689A
:1024A00000F00060B0F1006F04D103A8FFF714FB47
:1024B000049C00E000243AE09C485038006800F09A
:1024C0000050B0F1005F04D16846FFF71DFC019C8D
:1024D00000E000242BE095485038006800F004002C
:1024E000042808D1914850380068C0F3C1019048D1
:1024F00020FA01F400E0002419E08C48503800680C
:1025000000F48070B0F5807F01D18A4C00E0002497
:102510000DE086485038006800F40030B0F5003F08
:1025200001D1854C00E0002401E0002400BF53E10C
:102530004FF4002186EA0100384361D17B4808301E
:10254000006800F44038B8F1000F06D0B8F5803FBD
:1025500012D0B8F5003F50D11DE0744850380068E3
:1025600000F00060B0F1006F04D103A8FFF7B4FAE7
:10257000039C00E0002442E06C485038006800F002
:102580000050B0F1005F04D16846FFF7BDFB029C2C
:1025900000E0002433E06548001F006800F040556B
:1025A00062485038006800F00400042809D145B999
:1025B0005E4850380068C0F3C1015D4820FA01F45C
:1025C0001AE05A485038006800F48070B0F5807FF7
:1025D00004D1B5F1805F01D1564C0DE0534850381D
:1025E000006800F40030B0F5003F04D1B5F1005FA1
:1025F00001D1514C00E0002401E0002400BFEBE0D9
:102600004FF4803186EA010038432CD14748001F3F
:10261000006800F48038B8F1000F03D0B8F5803FAF
:102620001ED10EE041485038006800F00070B0F153
:10263000007F04D106A8FFF737F9079C00E00024CB
:1026400010E03A485038006800F00060B0F1006FC8
:1026500004D103A8FFF740FA059C00E0002401E044
:10266000002400BFB8E04FF4804186EA01003843FF
:1026700072D12E480830006800F0E048B8F1405FA1
:1026800033D009DCB8F1000F0DD0B8F1805F0ED067
:10269000B8F1005F5DD119E0B8F1804F37D0B8F1E3
:1026A000A04F56D14AE0FFF7EDF8044653E01F482B
:1026B0005038006800F00060B0F1006F04D103A84A
:1026C000FFF70AFA049C00E0002444E01748503861
:1026D000006800F00050B0F1005F04D16846FFF7D9
:1026E00013FB019C00E0002435E0104850380068DE
:1026F00000F00400042808D10C4850380068C0F3EA
:10270000C1010B4820FA01F400E0002423E007484F
:102710005038006800F48070B0F5807F01D1054C1E
:1027200000E0002417E017E00080BB00504402588E
:102730000090D00300093D0040787D0128480068E2
:1027400000F40030B0F5003F01D1264C00E0002439
:1027500001E0002400BF3FE04FF4004186EA0100A1
:10276000384338D11E485030006800F04058B8F166
:10277000000F06D0B8F1805F0ED0B8F1005F27D10E
:1027800018E01748006800F40030B0F5003F01D1B0
:10279000144C00E000241DE01148006800F00070B7
:1027A000B0F1007F04D106A8FFF77EF8079C00E097
:1027B00000240FE00A48006800F00060B0F1006FEC
:1027C00004D103A8FFF788F9049C00E0002401E08D
:1027D000002400BF00E00024204609B0BDE8F083DB
:1027E0000044025840787D012DE9F041044600255F
:1027F000A8464FF00062D4E90010114000201346B3
:1028000059404040014331D1A06E48B1B0F5801F1E
:102810000DD0B0F5001F11D0B0F5401F16D114E057
:10282000F948006840F40030F749086010E00221E0
:1028300004F1080003F0D6F9054609E0022104F18D
:10284000280003F081FA054602E001E0012500BFFF
:1028500000BF55B9EC482430006820F44010A16E48
:102860000843E9492431086000E0A8464FF480732A
:10287000D4E90010194000205940404001432ED1B6
:10288000A06D05281BD2DFE800F0030A111819001B
:10289000DD48006840F40030DB49086011E00021A9
:1028A00004F1080003F09EF905460AE0002104F156
:1028B000280003F049FA054603E002E001E00125A3
:1028C00000BF00BF55B9D0482430006820F0070091
:1028D000A16D0843CC492431086000E0A8464FF4BC
:1028E0000073D4E9001019400020594040400143D2
:1028F00034D1E06D802818D003DC40B140281DD1D0
:102900000CE0C02818D0B0F5807F17D115E0BE4884
:10291000006840F40030BC49086011E0002104F177
:10292000080003F05FF905460AE0002104F12800E1
:1029300003F00AFA054603E002E001E0012500BFCA
:1029400000BF55B9B0482430006820F4E070E16D54
:102950000843AD492431086000E0A8464FF4806385
:10296000D4E900101940002059404040014339D1BA
:10297000D4F8A800B0F5800F1AD004DC50B1B0F53F
:10298000001F1ED10DE0B0F5C00F18D0B0F5000F3C
:1029900017D115E09C48006840F400309A4908605F
:1029A00011E0002104F1080003F01CF905460AE0DB
:1029B000002104F1280003F0C7F9054603E002E016
:1029C00001E0012500BF00BF5DB98F482C300068D1
:1029D00020F46000D4F8A81008438B492C3108601B
:1029E00000E0A8464FF40062D4E900101140002036
:1029F000134659404040014339D1D4F8AC00B0F1FE
:102A0000007F1AD004DC50B1B0F1807F1ED10DE000
:102A1000B0F1407F18D0B0F1806F17D115E07A483F
:102A2000006840F400307849086011E0002104F1AA
:102A3000080003F0D7F805460AE0002104F1280059
:102A400003F082F9054603E002E001E0012500BF42
:102A500000BF5DB96C482C30006820F0E060D4F80D
:102A6000AC10084368492C31086000E0A8464FF0DC
:102A70000073D4E900011840002158404940084340
:102A800028D1E06CA8B1102804D0202809D0302823
:102A900010D10DE05C48006840F400305A490860ED
:102AA0000AE0022104F1080003F09CF8054603E067
:102AB00002E001E0012500BF00BF55B952482030B7
:102AC000006820F03000E16C08434F492031086075
:102AD00000E0A8464FF48053D4E9001019400020CC
:102AE00059404040014337D1206EB0F5005F1AD005
:102AF00004DC50B1B0F5805F1ED10DE0B0F5405F51
:102B000018D0B0F5804F17D115E03F48006840F469
:102B100000303D49086011E0002104F1080003F095
:102B200061F805460AE0002104F1280003F00CF9E1
:102B3000054603E002E001E0012500BF00BF55B9F2
:102B400031482430006820F4E040216E08432E49CB
:102B50002431086000E0A8464FF40053D4E9001087
:102B60001940002059404040014335D1606EB0F516
:102B7000403F1ED007DC68B1B0F5803F0BD0B0F508
:102B8000003F19D10EE0B0F5802F13D0B0F5A02F83
:102B900012D110E012E0012104F1080003F022F844
:102BA00005460BE0012104F1280003F0CDF80546AD
:102BB00004E003E002E001E0012500BF00BF55B9D9
:102BC00011482430006820F4E020616E08430E496B
:102BD0002431086000E0A8464FF48043D4E90001A6
:102BE0001840002158404940084337D1D4F8B0007C
:102BF000B0F1405F20D009DC78B1B0F1805F0DD03A
:102C0000B0F1005F1BD110E02C440258B0F1804FAE
:102C100013D0B0F1A04F12D110E012E0012104F165
:102C2000080002F0DFFF05460BE0012104F1280057
:102C300003F08AF8054604E003E002E001E0012524
:102C400000BF00BF4DB9FE48006820F0E040D4F856
:102C5000B0100843FA49086000E0A8464FF400426B
:102C6000D4E9001011400020134659404040014370
:102C700029D1206FB0B1B0F1805F03D0B0F1005F17
:102C800011D108E0EE482C38006840F40030EC49DF
:102C90002C39086009E0012104F1080002F0A2FFCC
:102CA000054602E001E0012500BF00BF55B9E44838
:102CB0000838006820F04050216F0843E049083987
:102CC000086000E0A8464FF08072D4E9001011407F
:102CD000002013465940404001432AD1A06CB8B1AE
:102CE000012804D002280BD0032812D10FE0D448C9
:102CF0002C38006840F40030D1492C3908600AE0D3
:102D0000022104F1080002F06DFF054603E002E035
:102D100001E0012500BF00BF55B9C9480C38006863
:102D200020F00300A16C0843C5490C39086000E09D
:102D3000A8464FF48002D4E9000110400021134658
:102D40005840494008437DD1BE48006840F4807037
:102D5000BC490860FEF778FA064606E0FEF774FA0A
:102D6000801B642801D9032505E0B648006800F4FB
:102D700080700028F2D000BF85BBB14818300068D1
:102D800000F44070B4F8B41001F44071884213D0DC
:102D9000AB481830006820F44077A9481830006824
:102DA00040F48030A649183108600846006820F4D5
:102DB0008030086008460760D4F8B400B0F5807F22
:102DC00015D1FEF741FA064609E0FEF73DFA801BF1
:102DD00041F28831884202D9032507E038E098485B
:102DE00018300068C0F340000028EED000BF55BB8B
:102DF00000BFB4F8B40000F44070B0F5407F0ED1CD
:102E00008F484838006820F47C518F4AD4F8B400C9
:102E1000104041EA10108A494839086007E08848A4
:102E20004838006820F47C50854948390860844857
:102E300018300068B4F8B410C1F30B01084380499E
:102E4000183101E005E001E0086002E0A84600E07A
:102E5000A8460122D4E90001104000211346584041
:102E60004940084330D1E06F18281AD005DC48B13A
:102E7000082808D0102817D10CE0202812D02828C4
:102E800012D110E012E0012104F1080002F0AAFEC4
:102E900005460BE0012104F1280002F055FF05462C
:102EA00004E003E002E001E0012500BF00BF55B9E6
:102EB0006348001F006820F03800E16F0843604954
:102EC000091F086000E0A8460222D4E90001104072
:102ED0000021134658404940084329D1A06F0628D5
:102EE00016D2DFE800F003040B12131412E00121E4
:102EF00004F1080002F076FE05460BE0012104F122
:102F0000280002F021FF054604E003E002E001E0B2
:102F1000012500BF00BF55B94948001F006820F0D7
:102F20000700A16F08434649091F086000E0A84652
:102F30000423D4E9001019400020594040400143C7
:102F400029D1D4F89400062816D2DFE800F0030453
:102F50000B12131412E0012104F1080002F042FEEA
:102F600005460BE0012104F1280002F0EDFE0546C4
:102F700004E003E002E001E0012500BF00BF4DB91D
:102F80002F48006820F00700D4F8941008432C491B
:102F9000086000E0A8462023D4E900011840002181
:102FA00058404940084337D1D4F89000B0F1405F11
:102FB0001ED007DC68B1B0F1805F0BD0B0F1005FCC
:102FC00019D10EE0B0F1804F13D0B0F1A04F12D163
:102FD00010E012E0002104F1080002F003FE0546B3
:102FE0000BE0022104F1280002F0AEFE054604E0E9
:102FF00003E002E001E0012500BF00BF5DB9104819
:10300000001F006820F0E040D4F8901008430C49FD
:10301000091F086000E0A8464023D4E900101940C9
:1030200000205940404001433CD1D4F89C00B0F509
:10303000406F25D00EDCA0B1B0F5806F12D005E056
:103040005844025800480258FFFCFF0FB0F5006FCB
:1030500019D10EE0B0F5805F13D0B0F5A05F12D1AA
:1030600010E012E0002104F1080002F0BBFD05466B
:103070000BE0022104F1280002F066FE054604E0A0
:1030800003E002E001E0012500BF00BF4DB9FE48AA
:10309000006820F4E050D4F89C100843FA49086016
:1030A00000E0A8468023D4E90010194000205940D0
:1030B0004040014335D1D4F8A000B0F5C04F1ED038
:1030C00007DC68B1B0F5005F0BD0B0F5804F19D1C7
:1030D0000EE0B0F5004F13D0B0F5204F12D110E044
:1030E00012E0002104F1080002F07CFD05460BE02F
:1030F000022104F1280002F027FE054604E003E067
:1031000002E001E0012500BF00BF4DB9DE480068C4
:1031100020F46040D4F8A0100843DB49086000E0C8
:10312000A8460823D4E90010194000205940404027
:10313000014317D1D4F88400B0F5805F07D1022194
:1031400004F1280002F000FE08B14FF00108CE485B
:10315000001F006820F44050D4F884100843CA4986
:10316000091F08601023D4E90010194000205940BD
:103170004040014315D1D4F89800B0F5807F07D1C5
:10318000022104F1280002F0DFFD08B14FF0010830
:10319000BD48006820F44070D4F898100843BA493C
:1031A00008604FF40022D4E90001104000211346CA
:1031B00058404940084327D1D4F8A40030B1B0F5B5
:1031C000803F0AD0B0F5003F0FD10DE0002104F19F
:1031D000080002F007FD054609E0022104F128007D
:1031E00002F0B2FD054602E001E0012500BF00BF8C
:1031F0004DB9A548006820F44030D4F8A410084325
:10320000A149086000E0A8464FF48023D4E90001FA
:10321000184000215840494008432DD1D4F8880077
:10322000B0F5801F06D0B0F5001F0CD0B0F5401FE0
:1032300011D10FE094482C38006840F400309249D6
:103240002C39086009E0012104F1280002F07CFD1E
:10325000054602E001E0012500BF00BF5DB98A48D4
:10326000001F006820F44010D4F8881008438649F5
:10327000091F086000E0A8464FF48032D4E900013D
:1032800010400021134658404940084325D1206D85
:1032900018B1B0F5803F10D108E07B482C380068A9
:1032A00040F4003078492C39086008E0022104F12C
:1032B000080002F097FC054601E0012500BF00BFB1
:1032C00055B971480C38006820F48030216D0843EE
:1032D0006D490C39086000E0A8464FF00052D4E96F
:1032E000001011400020134659404040014307D1CF
:1032F000022104F1280002F027FD08B14FF0010877
:103300004FF40033D4E900011840002158404940EF
:10331000084329D1D4F88000A0B1B0F5807F06D051
:10332000B0F5007F0CD0B0F5407F0CD109E05648D5
:103330002C38006840F4003053492C39086004E010
:1033400003E002E001E0012500BF00BF5DB94E4887
:10335000001F006820F44070D4F8801008434A49E8
:10336000091F086000E0A8464FF48012D4E900105D
:1033700011400020134659404040014309D14248C2
:103380000838006820F00040616F08433E49083962
:1033900008604FF08052D4E900101140002013461D
:1033A0005940404001430AD137484838006820F46A
:1033B0008040D4F8B81008433349483908604FF4C6
:1033C0000012D4E90010114000201346594040403B
:1033D000014309D12C480838006820F08070E16E64
:1033E00008432949083908604FF08042D4E90010A9
:1033F00011400020134659404040014311D100BF05
:1034000021484838006820F400401F4948390860C6
:1034100008460068D4F8BC1008431B4948390860C6
:1034200000BF4FF00042D4E90010114000201346C5
:1034300059404040014309D113480C38006820F03E
:103440004050616D084310490C3908604FF4000288
:10345000D4E9001011400020134659404040014378
:103460000AD10948001F006820F44000D4F88C10ED
:1034700008430549091F08600123002160681840BE
:1034800001224940504001E058440258014306D10E
:1034900004F1080002F0A6FB054605B1A846022289
:1034A00000216068104049405040014307D101218C
:1034B00004F1080002F096FB054605B1A846042376
:1034C000002061681940042240405140084307D160
:1034D000022104F1080002F085FB054605B1A8466B
:1034E00008230021606818400822494050400143E9
:1034F00006D104F1280002F027FC054605B1A846D4
:10350000102200216068104049405040014307D11B
:10351000012104F1280002F017FC054605B1A84678
:10352000202200206168114040405140084307D1EB
:10353000022104F1280002F007FC054605B1A84667
:10354000B8F1000F02D10020BDE8F0810120FBE7B7
:103550002DE9F04104460D4614B90120BDE8F08183
:10356000BD48006800F00F00A8420ED2BA480068BB
:1035700020F00F002843B84908600846006800F0B2
:103580000F00A84201D00120E8E7207800F00400F5
:1035900004280ED1B1492069096801F07001884200
:1035A00007D9AE48006820F0700021690843AB4994
:1035B0000860207800F00800082811D1A749091DEB
:1035C0006069096801F07001884209D9A348001DAB
:1035D000006820F0700061690843A049091D086077
:1035E000207800F01000102811D19C49091DA06915
:1035F000096801F4E061884209D99848001D006813
:1036000020F4E060A16908439449091D086020780E
:1036100000F02000202811D190490831E0690968A4
:1036200001F07001884209D98C480830006820F008
:103630007000E1690843894908310860207800F08A
:10364000020002280ED18549E068096801F00F01E7
:10365000884207D98148006820F00F00E1680843DC
:103660007E490860207800F00100002850D07B4897
:10367000006820F47060A1680843784908606068B9
:10368000022807D1754818380068C0F34040F8B9DF
:10369000012063E76068032807D170481838006884
:1036A000C0F34060A0B9012058E76068012807D145
:1036B0006A4818380068C0F3002048B901204DE777
:1036C000664818380068C0F3800008B9012045E753
:1036D00062480838006820F00700616808435F49C5
:1036E00008390860FDF7B0FD064608E0FDF7ACFDBF
:1036F000801B41F28831884201D903202EE75748C8
:103700000838006800F038006168B0EBC10FEDD1F7
:10371000207800F0020002280ED15049E0680968C4
:1037200001F00F01884207D24C48006820F00F00DA
:10373000E1680843494908604748006800F00F0005
:10374000A8420ED94448006820F00F00284342499F
:1037500008600846006800F00F00A84201D0012070
:10376000FCE6207800F0040004280ED13B492069D3
:10377000096801F07001884207D23848006820F0DB
:1037800070002169084335490860207800F008007E
:10379000082811D13149091D6069096801F07001DB
:1037A000884209D22D48001D006820F07000616930
:1037B00008432A49091D0860207800F010001028ED
:1037C00011D12649091DA069096801F4E061884208
:1037D00009D22248001D006820F4E060A169084376
:1037E0001E49091D0860207800F02000202811D112
:1037F0001A490831E069096801F07001884209D26C
:1038000016480830006820F07000E1690843134949
:103810000831086000F0ACF810490968C1F30321D1
:103820000F4A515C01F01F0120FA01F70B480068B4
:1038300000F00F001146085C00F01F0027FA00F0AE
:10384000084908600848076008480068FDF7BEFEA0
:103850008046404682E6000000200052184402588C
:10386000E8910008440000244000002438000024AF
:103870003F220260174A126802F007024260154AAE
:103880000832126802F470628260124A08321268CA
:1038900002F00F02C2600F4A0832126802F0700292
:1038A00002610C4A0C32126802F070024261094A4D
:1038B0000C32126802F4E0628261064A1032126829
:1038C00002F07002C261044A126802F00F020A603C
:1038D00070470000104402580020005210B500F05C
:1038E00047F80D490968C1F303210C4A515C01F006
:1038F0001F0120FA01F40848006800F00F0011468B
:10390000085C00F01F0024FA00F005490860054833
:1039100004600846006810BD18440258E891000889
:10392000440000244000002400B5FFF7D7FF0549FC
:103930000968C1F30211044A515C01F01F01C8403B
:1039400000BD00001C440258E891000800B5FFF7D4
:10395000C5FF05490968C1F30221044A515C01F021
:103960001F01C84000BD00001C440258E891000837
:10397000F0B5824E366806F0380636B1082E15D0FE
:10398000102E15D0182E7DD114E07C4E103E3668D6
:10399000C6F3401646B1794E103E3668C6F3C107ED
:1039A000774E26FA07F000E07548E5E07548E3E059
:1039B0007548E1E0714E1836366806F003046F4E24
:1039C00018363668C6F305116C4E1C36366806F09C
:1039D00001056A4E24363668C6F3CC0616FB05F69A
:1039E00001EE106AB8EE410A002971D024B1012C11
:1039F00050D0022C6DD16DE0604E103E3668C6F39B
:103A000040163EB35D4E103E3668C6F3C1075C4EAD
:103A100026FA07F301EE103AF8EE411A01EE101AF9
:103A2000B8EE411A81EE812A9FED581AC0EE011AB4
:103A3000524E20363668C6F3080601EE106AB8EE1C
:103A4000411A31EE811AF7EE001A31EE211A62EEB8
:103A5000010A1EE001EE101AB8EE411ADFED4C1A11
:103A600081EE812A9FED491AC0EE011A434E20369D
:103A70003668C6F3080601EE106AB8EE411A31EE58
:103A8000811A00E076E0F7EE001A31EE211A62EEBC
:103A9000010A5BE001EE101AB8EE411A9FED3D2AD3
:103AA000C2EE011A9FED391A80EE012A334E2036FC
:103AB0003668C6F3080601EE106AB8EE411A32EE17
:103AC000011AB7EE002A31EE021A61EE810A3DE0DA
:103AD0004EE01DE001EE101AB8EE411ADFED2E1A8D
:103AE00081EE812A9FED291AC0EE011A234E20365D
:103AF0003668C6F3080601EE106AB8EE411A31EED8
:103B0000811AF7EE001A31EE211A62EE010A1DE069
:103B100001EE101AB8EE411A9FED1E2AC2EE011AEC
:103B20009FED1A1A80EE012A144E20363668C6F32D
:103B3000080601EE106AB8EE411A32EE011AB7EE2D
:103B4000002A31EE021A61EE810A00BF00BF0B4E5F
:103B500020363668C6F34626721C01EE102AB8EEEF
:103B6000411AC0EE811ABCEEE11A11EE100A00E013
:103B7000002001E0034800BF00BFF0BD1044025820
:103B80000090D00300093D0040787D010000004610
:103B90000024744C0024744A20BCBE4B2DE9F0472D
:103BA000044614B90120BDE8F087207800F0010038
:103BB000002870D0FA48006800F03808F84818303B
:103BC000D0F80090B8F1100F06D0B8F1180F0FD14F
:103BD00009F0030002280BD1F14810380068C0F347
:103BE000404000286AD06068002867D10120DAE7E9
:103BF00000BF6068B0F5803F08D1E9481038006820
:103C000040F48030E649103908602EE0606868B9F9
:103C1000E3481038006820F48030E149103908602A
:103C20000846006820F4802008601EE06068B0F557
:103C3000A02F0DD1DA481038006840F48020D84910
:103C4000103908600846006840F4803008600CE0D5
:103C5000D3481038006820F48030D149103908600A
:103C60000846006820F48020086000BF606898B1B2
:103C7000FDF7EAFA054606E0FDF7E6FA401B642880
:103C800001D903208FE7C64810380068C0F34040D0
:103C90000028F1D012E012E0FDF7D6FA054606E062
:103CA000FDF7D2FA401B642801D903207BE7BC480A
:103CB00010380068C0F340400028F1D100BF2078E0
:103CC00000F00200022874D1B548006800F03808FE
:103CD000B3481830D0F80090B8F1000F05D0B8F113
:103CE000180F56D109F00300D0BBAD48103800685A
:103CF000C0F3800018B1E06808B9012053E7A84874
:103D00001038006820F01900E1680843A449103910
:103D10000860FDF799FA054606E0FDF795FA401BA5
:103D2000022801D903203EE79D4810380068C0F3FF
:103D300080000028F1D000BFFDF780FA41F20301B6
:103D400088421AD8206940280BD195480C38006861
:103D500020F47C3040F4003091490C39086017E0C1
:103D600017E08F480C38006820F47C30216940EA65
:103D700001308B490C3908600AE089480C3800682A
:103D800020F0FE40217C40EA016085490C39086042
:103D900066E0E06888B382481038006820F01900B7
:103DA000E16808437E4910390860FDF74DFA054681
:103DB00007E056E0FDF748FA401B022801D903202E
:103DC000F1E6774810380068C0F380000028F1D091
:103DD00000BFFDF733FA41F2030188421AD8206987
:103DE00040280BD16E480C38006820F47C3040F439
:103DF00000306B490C39086017E017E068480C3850
:103E0000006820F47C30216940EA013064490C39B3
:103E100008600AE062480C38006820F0FE40217C0F
:103E200040EA01605E490C39086019E05C481038CE
:103E3000006820F001005A4910390860FDF704FAC3
:103E4000054606E0FDF700FA401B022801D90320D1
:103E5000A9E6534810380068C0F380000028F1D16B
:103E600000BF207800F0100010287CD14C4800687A
:103E700000F038084A481830D0F80090B8F1080F20
:103E800006D0B8F1180F3DD109F00300012839D14F
:103E9000434810380068C0F3002020B1E069802852
:103EA00001D001207FE600BFFDF7C8F941F2030110
:103EB00088421AD8206A20280AD139480C3800686C
:103EC00020F0F84040F0804035490C39086018E097
:103ED00033480C38006820F0F84094F8201040EA8D
:103EE00081602F490C3908600BE02D48001F0068E5
:103EF00020F07C5094F8201040EA01602849091F06
:103F0000086066E0E06978B325481038006840F042
:103F10008000234910390860FDF796F9054606E050
:103F2000FDF792F9401B022801D903203BE61C480B
:103F300010380068C0F300200028F1D000BFFDF762
:103F40007DF941F2030188421CD8206A20280CD157
:103F500013480C38006820F0F84040F080401049C9
:103F60000C3908601AE035E01CE00D480C38006898
:103F700020F0F84094F8201040EA816008490C399C
:103F800008600BE00648001F006820F07C5094F8A1
:103F9000201040EA01600249091F086019E0000092
:103FA00010440258FA48006820F08000F849086080
:103FB000FDF74AF9054606E0FDF746F9401B0228E1
:103FC00001D90320EFE5F2480068C0F30020002883
:103FD000F2D100BF207800F00800082836D16069CF
:103FE000D0B1EB487430006840F00100E84974310A
:103FF0000860FDF729F9054606E0FDF725F9401BA5
:10400000022801D90320CEE5E14874300068C0F3EE
:1040100040000028F1D019E0DD487430006820F03D
:104020000100DB4974310860FDF70EF9054606E032
:10403000FDF70AF9401B022801D90320B3E5D44853
:1040400074300068C0F340000028F1D1207800F0FF
:104050002000202830D1A069B8B1CD48006840F4D4
:104060008050CB490860FDF7EFF8054606E0FDF704
:10407000EBF8401B022801D9032094E5C4480068EE
:10408000C0F340300028F2D016E0C148006820F4A8
:104090008050BF490860FDF7D7F8054606E0FDF7F8
:1040A000D3F8401B022801D903207CE5B8480068FA
:1040B000C0F340300028F2D1207800F0040004283A
:1040C0007DD1B448006840F48070B2490860FDF7C3
:1040D000BBF8054606E0FDF7B7F8401B642801D998
:1040E000032060E5AB48006800F480700028F2D03F
:1040F00000BFA068012808D1A5487030006840F0D2
:104100000100A349703108602DE0A06868B9A0489B
:104110007030006820F001009D4970310860084649
:10412000006820F0040008601DE0A06805280DD19B
:1041300097487030006840F004009549703108607D
:104140000846006840F0010008600CE090487030BC
:10415000006820F001008E49703108600846006850
:1041600020F00400086000BFA068A0B1FDF76CF863
:10417000054608E0FDF768F8401B41F288318842A7
:1041800001D903200FE5824870300068C0F3400079
:104190000028EFD013E0FDF757F8054608E0FDF7DB
:1041A00053F8401B41F28831884201D90320FAE4D8
:1041B000774870300068C0F340000028EFD1606A93
:1041C00000287DD072481030006800F038001828B0
:1041D00077D0606A022875D16D48006820F0807041
:1041E0006B490860FDF730F8054606E0FDF72CF84E
:1041F000401B022801D90320D5E465480068C0F3BC
:1042000040600028F2D100BFD4E90A1041EA001052
:104210005F492831096840F2F332914308435C4911
:1042200028310860208E401EC0F30800616B491ED3
:104230004FF47E4202EA41210843218F491ED201F8
:1042400002EA014108433C21095D491E120202EACB
:10425000016108434E493031086000BF081F006803
:1042600020F00100091F08604948343000684FF60B
:10427000F8718843A16C40EAC100454934310860B7
:1042800043482C30006820F00C00216C0843404962
:104290002C3108600846006820F00200616C084379
:1042A0003B492C3108600846006840F480300860C3
:1042B0000846006840F4003008600846006802E0E4
:1042C00093E038E01FE040F4802008600846006872
:1042D00040F0010008602E48006840F080702C49D2
:1042E0000860FCF7B1FF054606E0FCF7ADFF401B98
:1042F000022801D9032056E425480068C0F3406035
:104300000028F2D071E02248006820F08070204937
:104310000860FCF799FF054606E0FCF795FF401B97
:10432000022801D903203EE419480068C0F3406028
:104330000028F2D159E01648283007681448303078
:104340000668606A012821D007F00301A06A814253
:104350001CD1C7F30511E06A884217D1C6F30801E2
:10436000206B401E814211D1606B401EC6F3462176
:1043700088420BD1A06B401EC6F30641884205D18E
:10438000E06B401EC6F30661884205D001200AE4B6
:10439000004402580048025815480068C0F3CC0792
:1043A000A06CB84221D012480838006820F0010003
:1043B0000F4908390860FCF747FF054600BFFCF7C6
:1043C00043FF401BFBD00A4800684FF6F871884352
:1043D000A16C40EAC1000649086005480838006839
:1043E00040F0010002490839086000204AE400005A
:1043F0003444025870B504460CB9012070BD606A9F
:1044000000B900BF0021A1626349206888420CD036
:1044100062492068884208D061492068884204D0F7
:10442000E0680F2801D90120E8E7204601F03EFDB1
:10443000054659492068884209D058492068884271
:1044400005D057492068884201D0082D0DD852491F
:104450002068884207D051492068884203D05049DB
:104460002068884203D1102D01D90120C6E794F8B5
:10447000810028B9002084F88000204600F092F8DE
:10448000022084F881002068006820F00100216883
:1044900008602068806800F4F816A069B0F1806FA9
:1044A00011D16068B0F5800F01D1A06B28B16068B0
:1044B00048B9A06BB0F1805F05D12068006840F476
:1044C000805021680860606800F48000B0F5800FBB
:1044D0000BD1E068072808D32068006820F48070BA
:1044E000216D08432168086005E02068006820F419
:1044F000807021680860A16AE06908433043E16B7D
:104500000843E168084321688860616A606B08437A
:10451000A16B0843A1690843216908436169084305
:10452000216A084361680843E16C0843A1680843B5
:10453000A16C0843A16D08432168C860606878B920
:104540002068806820F4C05040F4006021688860D2
:104550002068806820F4C06040F480602168886032
:104560002068006D20F0010021680865606800F493
:104570008000B0F5800F07D12068C06820F00040AF
:10458000616D08432168C8600020C4F884000120E0
:1045900084F88100002031E70030014000380040FD
:1045A000003C004010B5B8B00446142132A8FBF717
:1045B0003BFFC02102A8FBF737FF1E492068884255
:1045C00035D181140020CDE902101A9002A8FEF71F
:1045D0000BF908B1FCF72FF800BF1748006840F44A
:1045E0008050154908600846006800F4805001902A
:1045F00000BF00BF00BF10481038006840F0010045
:104600000D49103908600846006800F0010001906B
:1046100000BF00BFE0203290022033900020349091
:1046200035900520369032A90448FCF7F1FC38B0EB
:1046300010BD000000300140F04402580000025854
:10464000704770477047000030B502460B4600BF08
:1046500092F83C00012801D1022030BD012082F8EF
:104660003C0000BF022082F83D00106841681068DD
:104670008468214D1068A84203D0204D1068A842DC
:1046800003D121F470015868014321F070011868CA
:10469000014310684160184D1068A8421BD0106893
:1046A000B0F1804F17D0164D1068A84213D0154DA9
:1046B0001068A8420FD0144D1068A8420BD00F4DBF
:1046C0001068A84207D0114D1068A84203D0104DC1
:1046D0001068A84205D124F080049868044310684B
:1046E0008460012082F83D0000BF002082F83C0079
:1046F00000BF00BFB1E7000000000140000401401E
:104700000004004000080040000C00400018004079
:104710000040014010B504460CB9012010BD94F8CA
:104720003D0028B9002084F83C00204600F02AF81B
:10473000022084F83D00211D206801F0E9FC0120E1
:1047400084F8480000BF84F83E0001213F20015555
:10475000402001554120015542200155432001557B
:1047600000BF00BF012084F84400452001554620C9
:1047700001554720015500BF012084F83D0000206D
:10478000CCE7000010B586B00446142101A8FBF761
:104790004BFE1849206888422AD100BF164800689D
:1047A00040F00200144908600846006800F002006A
:1047B000009000BF00BF00BF0F480838006840F0FD
:1047C00002000D49083908600846006800F0020040
:1047D000009000BF00BF1020019002200290002036
:1047E000039004900220059001A90448FCF710FCF6
:1047F00006B010BD00040040E8440258000402580E
:10480000014691F83D00012801D0012070470220A7
:1048100081F83D000868C06840F001000B68D8606E
:104820001C4B086898421BD00868B0F1804F17D025
:10483000194B0868984213D0184B086898420FD05B
:10484000174B086898420BD0164B0868984207D05F
:10485000154B0868984203D0144B0868984210D151
:1048600008688068124B00EA0302062A0FD0B2F5EE
:10487000803F0CD00868006840F001000B681860A9
:1048800005E00868006840F001000B68186000202F
:10489000BCE70000000001400004004000080040A8
:1048A000000C00400004014000180040004001409E
:1048B0000700010070472DE9F04104460D461646F9
:1048C000002700BF94F83C00012802D10220BDE877
:1048D000F081012084F83C0000BF96B9EB68D5E96F
:1048E0000012206801F0EAFE2068806920F00C00C8
:1048F0002168886120688069A96808432168886107
:1049000041E0042E13D1EB68D5E90012206801F0D4
:1049100031FF2068806920F4406021688861206848
:104920008069A96840EA0120216888612BE0082E8F
:1049300012D1EB68D5E90012206801F038FF206839
:10494000C06920F00C002168C8612068C069A968AE
:1049500008432168C86116E00C2E13D1EB68D5E935
:104960000012206801F03FFF2068C06920F4406019
:104970002168C8612068C069A96840EA01202168EF
:10498000C86100E0012700BF002084F83C0000BFA0
:1049900038469CE710B504460CB9012010BD94F8C8
:1049A0003D0028B9002084F83C00204600F029F89A
:1049B000022084F83D00211D206801F0A9FB0120A0
:1049C00084F8480000BF84F83E0001213F200155D3
:1049D00040200155412001554220015543200155F9
:1049E00000BF00BF012084F8440045200155462047
:1049F00001554720015500BF012084F83D000020EB
:104A0000CCE7704770B504462068C6682068056921
:104A100005F00200022819D106F00200022815D183
:104A2000401F21680861012020772068806900F01C
:104A3000030018B12046FFF73DFF05E0204600F0D7
:104A4000F7F8204600F0FAF90020207705F004007E
:104A5000042819D106F00400042815D1C0432168A8
:104A60000861022020772068806900F4407018B146
:104A70002046FFF71FFF05E0204600F0D9F820464A
:104A800000F0DCF90020207705F00800082819D193
:104A900006F00800082815D1C043216808610420E9
:104AA00020772068C06900F0030018B12046FFF7A6
:104AB00001FF05E0204600F0BBF8204600F0BEF9FB
:104AC0000020207705F01000102819D106F0100002
:104AD000102815D1C043216808610820207720687C
:104AE000C06900F4407018B12046FFF7E3FE05E00E
:104AF000204600F09DF8204600F0A0F90020207725
:104B000005F0010048B106F0010030B16FF001007E
:104B100021680861204600F093F905F080008028A4
:104B200004D005F40050B0F5005F0AD106F0800013
:104B3000802806D16FF40250216808612046FFF7F3
:104B400080FD05F48070B0F5807F0AD106F080000A
:104B5000802806D16FF48070216808612046FFF735
:104B60006FFD05F04000402809D106F040004028C4
:104B700005D1C04321680861204600F0A3F905F083
:104B80002000202809D106F02000202805D1C043AC
:104B9000216808612046FFF755FD70BD10B586B04D
:104BA0000446142101A8FBF73FFC2068B0F1804FB8
:104BB00035D100BF1B48006840F00100194908606A
:104BC0000846006800F00100009000BF00BF00BF71
:104BD0000846006840F0020008600846006800F0DF
:104BE0000200009000BF00BF03200190022002904D
:104BF0000020039004900120059001A90A48FCF7C9
:104C000007FA4FF4406001900220029000200390C8
:104C100004900120059001A90448FCF7F9F906B0B9
:104C200010BD0000E0440258000002580004025881
:104C300070472DE9F04104460D461646002700BF97
:104C400094F83C00012802D10220BDE8F081012047
:104C500084F83C0000BF0C2E51D005DC4EB1042E70
:104C60001ED0082E7AD133E0102E60D0142EF9D148
:104C700075E02946206801F0C5FA2068806940F097
:104C80000800216888612068806920F0040021689C
:104C9000886120688069296908432168886178E013
:104CA0002946206801F004FB2068806940F4006018
:104CB000216888612068806920F4806021688861AB
:104CC00020688069296940EA01202168886160E0E4
:104CD0002946206801F046FB2068C06940F00800C2
:104CE0002168C8612068C06920F004002168C8619B
:104CF0002068C069296908432168C86149E02946DC
:104D0000206801F089FB2068C06940F400602168D8
:104D1000C8612068C06920F480602168C86120688B
:104D2000C069296940EA01202168C86131E029464B
:104D3000206801F0ABFB2068406D40F0080021685E
:104D400048652068406D20F00400216848652068AF
:104D5000406D29690843216848651AE017E0294633
:104D6000206801F0CBFB2068406D40F400602168B2
:104D700048652068406D20F480602168486520689F
:104D8000406D296940EA01202168486501E001275A
:104D900000BF00BF00BF002084F83C0000BF3846C1
:104DA00053E710B504460CB9012010BD94F83D003E
:104DB00028B9002084F83C00204600F029F80220A1
:104DC00084F83D00211D206801F0A2F9012084F83B
:104DD000480000BF84F83E0001213F2001554020DB
:104DE000015541200155422001554320015500BF86
:104DF00000BF012084F8440045200155462001559C
:104E00004720015500BF012084F83D000020CCE779
:104E100008B50168B1F1804F0DD100BF064909689E
:104E200041F00101044A11601146096801F00101D5
:104E3000009100BF00BF08BDE84402587047000061
:104E400010B5044603492068884201D1FCF782FB73
:104E500010BD00000048014070B504460D4600BF7B
:104E600094F83C00012801D1022070BD012084F893
:104E70003C0000BF022084F83D002946204601F096
:104E800075FB48B1012084F83D0000BF002084F884
:104E90003C0000BF0120E8E72068C06820F0400027
:104EA0002168C8602068C06820F480402168C8601C
:104EB000012084F83D0000BF002084F83C0000BFC2
:104EC00000BFD2E77047014600BF91F88400012877
:104ED00001D102207047012081F8840000BF242006
:104EE000C1F88800086802680868006820F00100BE
:104EF0000B68186022F000520020486608680260C3
:104F00002020C1F8880000BF002081F8840000BF85
:104F100000BFDFE770B504460D4600BF94F884007B
:104F2000012801D1022070BD012084F8840000BF57
:104F30002420C4F88800206806682068006820F0F3
:104F40000100216808602068806820F060602843C4
:104F500021688860204601F065FC206806602020FA
:104F6000C4F8880000BF002084F8840000BF00BFA0
:104F7000D9E770B504460D4600BF94F884000128B7
:104F800001D1022070BD012084F8840000BF2420DC
:104F9000C4F88800206806682068006820F00100D6
:104FA000216808602068806820F0604028432168FC
:104FB0008860204601F036FC206806602020C4F896
:104FC000880000BF002084F8840000BF00BFD9E73C
:104FD00010B504460CB9012010BDA06900B100E075
:104FE00000BFD4F8880028B9002084F88400204647
:104FF00000F02AF82420C4F888002068006820F017
:10500000010021680860A06A10B1204601F036FC5A
:10501000204601F05BFD012800D1DDE720684068F3
:1050200020F49040216848602068806820F02A00C1
:10503000216888602068006840F0010021680860ED
:10504000204601F097FCC7E710B5B8B0044614211C
:1050500032A8FBF7E9F9C02102A8FBF7E5F9994965
:105060002068884237D104210020CDE90210279022
:1050700002A8FDF7B9FB08B1FBF7DDFA00BF9248C3
:10508000006840F00800904908600846006800F099
:105090000800019000BF00BF00BF8B4814380068B3
:1050A00040F001008849143908600846006800F0A3
:1050B0000100019000BF00BF4FF4C0603290022099
:1050C00033900020349035900320369032A97F48E9
:1050D000FBF79EFFF4E07E492068884239D1022127
:1050E0000020CDE90210209002A8FDF77DFB08B159
:1050F000FBF7A1FA00BF74480C38006840F40020A8
:1051000071490C3908600846006800F400200190DD
:1051100000BF00BF00BF6C481438006840F00100B9
:105120006949143908600846006800F001000190E0
:1051300000BF00BF4FF4C0503290022033900020D7
:10514000349035900620369032A96048FBF760FF16
:10515000B6E060492068884238D102210020CDE9BC
:105160000210209002A8FDF73FFB08B1FBF763FA9D
:1051700000BF55480C38006840F4003052490C39E3
:1051800008600846006800F40030019000BF00BFCE
:1051900000BF4D481438006840F001004A491439F6
:1051A00008600846006800F00100019000BF00BFE1
:1051B0000C2032900220339000203490359007204C
:1051C000369032A94148FBF723FF79E04249206835
:1051D000884239D102210020CDE90210209002A896
:1051E000FDF702FB08B1FBF726FA00BF36480C3882
:1051F000006840F4802034490C3908600846006893
:1052000000F48020019000BF00BF00BF2E4814387A
:10521000006840F008002C4914390860084600680E
:1052200000F00800019000BF00BF4FF440703290C2
:10523000022033900020349035900720369032A918
:105240002648FBF7E5FE3BE025492068884237D138
:1052500001210020CDE90210219002A8FDF7C4FA37
:1052600008B1FBF7E8F900BF1748001F006840F0DD
:1052700020001549091F08600846006800F020005A
:10528000019000BF00BF00BF0F481438006840F015
:1052900004000D49143908600846006800F0040055
:1052A000019000BF00BFC020329002203390002048
:1052B000349035900720369032A90A48FBF7A8FEB3
:1052C00038B010BD000C0058F444025800000258D9
:1052D000004C00400044004000480040000C0258D0
:1052E00000140140000802582DE9F84F04460E460C
:1052F00017469946D4F88800202854D106B117B92A
:105300000120BDE8F88F00205434E0632120606361
:10531000FBF79AFF824627806780543CA068B0F56F
:10532000805F04D1206910B90025B04602E03546FF
:105330004FF0000820E05346002280212046CDF89F
:10534000009001F089FE20B12020C4F888000320DD
:10535000D7E745B9B8F80000C0F3080021688862B3
:1053600008F1020803E02878216888626D1CB4F80F
:105370005600401EA4F85600B4F856000028DAD1B2
:105380005346002240212046CDF8009001F064FEF3
:1053900020B12020C4F888000320B2E72020C4F800
:1053A00088000020ADE70220ABE700BFFEE7014622
:1053B0008868C0F3C00070470146886800F00100AB
:1053C00070470146886800F0010070470146886810
:1053D000C0F30070704701468868C0F380007047D2
:1053E00001468868C0F38000704770B500F114046E
:1053F000C1F3406504EB85031C68C1F3045607251F
:10540000B540AC43C1F3045502FA05F52C431C60CA
:1054100070BD826822F0E0720A43826070471FB557
:1054200000200090019002900390FCF747F90120C2
:105430008DF8000000208DF8010001901F208DF8EC
:10544000080087208DF8090000208DF80A008DF8EB
:105450000B0001208DF80C008DF80D0000208DF858
:105460000E008DF80F006846FCF7FAF80420FCF7F0
:105470003BF91FBD00B58BB00020089009900A9041
:105480001C2101A8FAF7D0FF1F482049086000201E
:10549000486000211D488160C16004210161002134
:1054A00001754175012181610021017741628162AD
:1054B000C1620163416380F83810FBF717FC08B143
:1054C000FBF7B9F80020089008A91048FBF7B6F8D8
:1054D00008B1FBF7B0F80E480190062002900020BA
:1054E000039040F2FF700490042005900020069085
:1054F0008DF81D0001A90548FBF752F908B1FBF72B
:105500009AF80BB000BD0000002002400803002400
:105510001000C01000B5A1B01E4B0FCBCDE91F236A
:10552000CDE91D0100211DA802F033F81A490860D9
:105530001C221849103116A8FAF75DFF002116A8A1
:1055400002F0BAF8154908601C2212492C310FA844
:10555000FAF751FF00210FA802F0AEF810490860D9
:105560001C220C49483108A8FAF745FF002108A879
:1055700002F0A2F80B4908601C220649643101A818
:10558000FAF739FF002101A802F096F806490860F1
:1055900021B000BD4091000830000024200000240C
:1055A00024000024280000242C00002400B587B02B
:1055B000142102A8FAF738FF00BF5A48006840F0EB
:1055C0001000584908600846006800F0100001907B
:1055D00000BF00BF00BF0846006840F080000860C0
:1055E0000846006800F08000019000BF00BF00BFC7
:1055F0000846006840F0040008600846006800F0B3
:105600000400019000BF00BF00BF0846006840F0E2
:10561000010008600846006800F00100019000BF2A
:1056200000BF00BF0846006840F00200086008465E
:10563000006800F00200019000BF00BF00BF0846F4
:10564000006840F0080008600846006800F00800A4
:10565000019000BF00BF00224FF4E0713248FBF719
:10566000E7FD002240F201413048FBF7E1FD002256
:1056700048F210012E48FBF7DBFD00224FF4815168
:105680002C48FBF7D5FD00224FF480612A48FBF738
:10569000CFFD40F23F20029000200390049002A929
:1056A0002148FBF7B5FC4FF4E07002900120039015
:1056B00000200490059002A91B48FBF7A9FC40F2CA
:1056C000014002900120039000200490059002A95F
:1056D0001648FBF79DFC48F2100002900120039051
:1056E00000200490059002A91148FBF791FC4FF4AB
:1056F000815002900120039000200490059002A99F
:105700000C48FBF785FC4FF4806002900120039069
:10571000002004900220059002A90748FBF778FCBE
:1057200007B000BDE04402580010025800080258BB
:105730000000025800040258000C025810B512482C
:105740001249086012484860002110488160012118
:10575000C1600021016141618161C1610162FBF7AA
:10576000E3FD08B1FAF767FF00210848FBF772FD77
:1057700008B1FAF760FF00210448FBF7A0FD08B16B
:10578000FAF759FF10BD0000005400406C030024DC
:10579000FFECC01010B5124812490860124848606A
:1057A0000021104881600121C16000210161416137
:1057B0008161C1610162FBF7B7FD08B1FAF73BFFF8
:1057C00000210848FBF746FD08B1FAF734FF002135
:1057D0000448FBF774FD08B1FAF72DFF10BD000077
:1057E000005C0040C0030024FFECC01010B5174857
:1057F0001749086017484860002115488160C1605A
:1058000001610C214161002181610162416200203E
:105810000F49886248660846FFF7DAFB08B1FAF7D5
:105820000AFF00210A48FFF7A4FB08B1FAF703FFBB
:1058300000210748FFF76EFB08B1FAF7FCFE0448A9
:10584000FFF741FB08B1FAF7F6FE10BD000C005857
:10585000140400242433030010B5154815490860CA
:105860004FF4800048600021124881600321C1602C
:105870000021016141614FF0806181610021C161BE
:10588000016241628162C1624FF080414163002147
:105890008163C163016441648164C16401654165E0
:1058A0008165FEF7A7FD08B1FAF7C5FE10BD00003F
:1058B00000300140F806002400B58BB000200890AD
:1058C00009900A901C2101A8FAF7AEFD4FF0804024
:1058D0002249086000204860002120488160491E5C
:1058E000C160002101618161FFF75BFA08B1FAF73D
:1058F000A2FE002008900A9008A91848FEF7A4FE0E
:1059000008B1FAF798FE6020019000200290039001
:105910000590002201A91148FFF78BF908B1FAF7A9
:105920008AFE042201A90D48FFF783F908B1FAF7AE
:1059300082FE082201A90948FFF77BF908B1FAF7AE
:105940007AFE0C2201A90548FFF773F908B1FAF7AE
:1059500072FE0248FFF722F90BB000BD8007002459
:1059600000B58DB0142108A8FAF75EFD002005905F
:105970000690079001900290039004901F482049E0
:1059800008600020486000211D4881604FF6FF71CB
:10599000C160002101618161FEF7BCFE08B1FAF728
:1059A0004AFE1748FEF7F6FF08B1FAF744FE072053
:1059B00008900020099008A91148FFF74DFA08B196
:1059C000FAF739FE00200590079005A90C48FEF76C
:1059D0003BFE08B1FAF72FFE002001900120029053
:1059E000002003900490002201A90548FEF763FF00
:1059F00008B1FAF720FE0DB000BD00000004004021
:105A0000CC07002410B51848184908604FF4E1305D
:105A10004860002115488160C16001610C2141612D
:105A200000218161C1610162416200200F498862E9
:105A30000846FFF7CDFA08B1FAF7FDFD00210B4843
:105A4000FFF797FA08B1FAF7F6FD00210748FFF7CC
:105A500061FA08B1FAF7EFFD0448FFF734FA08B12C
:105A6000FAF7E9FD10BD0000004C0040A804002436
:105A700010B51848184908604FF4E130486000211B
:105A800015488160C16001610C2141610021816183
:105A9000C1610162416200200F4988620846FFF738
:105AA00097FA08B1FAF7C7FD00210B48FFF761FA32
:105AB00008B1FAF7C0FD00210748FFF72BFA08B13B
:105AC000FAF7B9FD0448FFF7FEF908B1FAF7B3FD9C
:105AD00010BD0000004400403C05002410B51848EB
